:020000040800F2
:1000000008470020E902000803150008A1130008B2
:1000100001150008CB050008E11A000800000000E7
:10002000000000000000000000000000290200089D
:10003000CD05000800000000850200083D160008FC
:100040000303000803030008030300080303000878
:100050000303000803030008030300080303000868
:100060000303000803030008030300080303000858
:100070000303000803030008030300080303000848
:100080000303000803030008030300080303000838
:100090000303000803030008030300080303000828
:1000A000030300081D1700080303000803030008EA
:1000B0000303000803030008030300080303000808
:1000C00003030008030300080303000803030008F8
:1000D00003030008A51A000803030008030300082F
:1000E00003030008030300080303000803030008D8
:1000F00003030008030300080303000803030008C8
:1001000003030008030300080303000803030008B7
:1001100003030008030300080303000803030008A7
:100120000303000803030008030300080303000897
:100130000303000803030008030300080303000887
:100140000303000803030008030300080303000877
:100150000303000803030008030300080303000867
:100160000303000803030008030300080303000857
:100170000303000803030008030300080000000055
:10018000030300080303000800F002F800F03CF845
:100190000AA090E8000C82448344AAF10107DA45E2
:1001A00001D100F031F8AFF2090EBAE80F0013F0F8
:1001B000010F18BFFB1A43F0010318474C30000031
:1001C0006C300000103A24BF78C878C1FAD85207C2
:1001D00024BF30C830C144BF04680C6070470000C1
:1001E0000023002400250026103A28BF78C1FBD840
:1001F000520728BF30C148BF0B6070471FB502F0DF
:1002000055FF1FBD10B510BD00F0A6F91146FFF750
:10021000F5FF01F097FC00F0C4F903B4FFF7F2FF1B
:1002200003BC00F0CBF900002C4B19680868B0E85B
:10023000F04F80F30988BFF36F8F4FF0000080F319
:10024000118870470000000008480068006880F3CB
:1002500008884FF0000080F3148862B661B6BFF3DF
:100260004F8FBFF36F8F00DF00BF00BF08ED00E0CE
:10027000DFF80C00016841F470010160704700BFB5
:1002800088ED00E0EFF30980BFF36F8F134B1A681E
:100290001EF0100F08BF20ED108A20E9F04F10600B
:1002A00009B44FF0500080F31188BFF34F8FBFF3B4
:1002B0006F8F02F0C5F94FF0000080F3118809BC80
:1002C00019680868B0E8F04F1EF0100F08BFB0ECD6
:1002D000108A80F30988BFF36F8F704740000020B9
:1002E000EFF3058070470000094880470948004740
:1002F000FEE7FEE7FEE7FEE7FEE7FEE7FEE7FEE7D6
:10030000FEE7FEE704480549054A064B7047000032
:100310000117000889010008084100200847002053
:10032000084300200843002053EA020C00F06980D3
:100330002DE9F04B4FF00006002B1FBFB3FA83F5F9
:1003400003FA05F424FA05F65E4012BF1643B2FA2A
:1003500082F502FA05F4C5F120051EBF22FA05FC5C
:1003600044EA0C04203556EA044C4FEA144418BF02
:10037000641C4FF000084FF00009904271EB030C31
:1003800039D3002919BFB1FA81F701FA07F6B0FA9B
:1003900080F700FA07F6C7F120071EBF20FA07FC16
:1003A00046EA0C062037B6FBF4FCA7EB0507103F26
:1003B00007F01F0BCBF120060CFA0BFB2CFA06F60C
:1003C00044BFB3460026202FA4BF5E464FF0000B6B
:1003D0005BEA060C08BF4FF0010B19EB0B09ABFBF6
:1003E000027C48EB0608C01B06FB02CC0BFB03CCCF
:1003F00071EB0C01C1E70B46024641464846BDE899
:10040000F08B13B54FF000004FF00001AFF3008008
:10041000BDE81C407047032A40F2308010F0030C06
:1004200000F0158011F8013BBCF1020F624498BF47
:1004300011F801CB00F8013B38BF11F8013BA2F1E4
:10044000040298BF00F801CB38BF00F8013B11F05F
:10045000030300F02580083AC0F0088051F8043BFF
:10046000083A51F804CBA0E80810F5E7121D5CBF6C
:1004700051F8043B40F8043BAFF30080D20724BF9F
:1004800011F8013B11F801CB48BF11F8012B24BF33
:1004900000F8013B00F801CB48BF00F8012B704782
:1004A00010B5203AC0F00B80B1E81850203AA0E80F
:1004B0001850B1E81850A0E81850BFF4F5AF5FEA43
:1004C000027C24BFB1E81850A0E8185044BF18C9F6
:1004D00018C0BDE810405FEA827C24BF51F8043B9D
:1004E00040F8043B08BF7047D20728BF31F8023BF1
:1004F00048BF11F8012B28BF20F8023B48BF00F885
:10050000012B70474FF0000200B513469446964603
:10051000203922BFA0E80C50A0E80C50B1F1200116
:10052000BFF4F7AF090728BFA0E80C5048BF0CC0C4
:100530005DF804EB890028BF40F8042B08BF704722
:1005400048BF20F8022B11F0804F18BF00F8012B94
:100550007047704770477047754600F02BF8AE46FD
:1005600005006946534620F00700854618B020B5BF
:10057000FFF7C8FEBDE820404FF000064FF000072F
:100580004FF000084FF0000B21F00701AC46ACE83B
:10059000C009ACE8C009ACE8C009ACE8C0098D46A8
:1005A000704710B50446AFF300802046BDE8104008
:1005B000FFF733BE00487047A440002001491820CF
:1005C000ABBEFEE7260002007047FEE7704772B63A
:1005D000FEE790F83510022903D080214165012003
:1005E0007047052180F835100068016821F001018D
:1005F00001600020704700002DE9F84F00224FF005
:10060000010803254FF00F0E0B6808FA02F423408F
:10061000A3426ED14E68012E05D0022E03D0112EBA
:1006200001D0122E12D186684FEA420C05FA0CF75F
:10063000BE43CF6807FA0CF7374387604668A64386
:100640000C79C4F30014944034434460C6685700E6
:1006500005FA07FC8C6826EA0C06BC403443C460EB
:100660004C68022C01D0122C13D1D40800EB840466
:10067000A346D4F8209054074FEAD46A0EFA0AF63B
:1006800029EA06090E6906FA0AF646EA0906CBF8CF
:10069000206006680C7926EA0C0604F00304BC40CE
:1006A000344304604C68E40065D5364C266846F453
:1006B00080462660246822F0030604F480440094F7
:1006C000314C3444A446D4F808489607370F0EFA44
:1006D00007F6B4432D4EB04201D1002624E02C4E43
:1006E000B04201D101261FE02A4EB04202D10226BB
:1006F0001AE040E0284EB04201D1032614E0274E14
:10070000B04201D104260FE0254EB04201D10526AA
:100710000AE0244EB04201D1062605E0224EB04246
:1007200001D1072600E00826BE402643CCF8086821
:100730001E4E34684F689C43FF0300D51C43346051
:100740001A4C241D26684F689E43BF0300D51E43E4
:100750002660164E083634684F689C43FF0200D569
:100760001C433460114E0C3634684F689C43BF0202
:1007700000D51C433460521C102AFFF445AFBDE87D
:10078000F88F000044380240003001400000024071
:100790000004024000080240000C02400010024029
:1007A0000014024000180240001C0240003C0140BE
:1007B00001488068704700003000002002488168CE
:1007C0000278114481607047300000200B4810B55A
:1007D000016841F400710160016841F480610160C9
:1007E000016841F480710160032000F099F80F2046
:1007F00000F006F800F04AF8002010BD003C02406E
:1008000030B505461C4887B00024016841F001015D
:100810000160006806A900F00100009001A800F046
:100820002BF900F059F915494000B0FBF1F11548DA
:10083000134A491E026040F2E732C0E90324C0E9CE
:100840000114846100F03AFB040012D10D4800F05D
:1008500051FB04000DD1192000F034F8102D07D2FF
:1008600000222946192000F03BF80748056000E007
:10087000012407B0204630BD4438024040420F00FA
:100880000000014074030020340000200C4882B0B6
:10089000016841F480410160006800F480400090EC
:1008A0000748001F016841F0805101600068002284
:1008B00000F0805000900F21901E02B000F010B8A0
:1008C00044380240002809DB00F01F02012191405A
:1008D0004009800000F1E020C0F8001170470000DE
:1008E000F0B40E4B1B680C46C3F30223C3F107059B
:1008F000042D00D90425191D072901D2002300E089
:10090000DB1E012606FA05F1491E214099409E4052
:10091000761E16403143F0BC01F0E3B80CED00E068
:10092000064900F0070208684FF6FF03184040EA46
:100930000220034A10430860704700000CED00E0FD
:100940000000FA052DE9F0470E46050065D0DFF8F6
:100950001481D8F80000F7B200F00F00B04207D2BF
:1009600088F80070D8F8000000F00F00B04254D1B1
:1009700028683D4C810712D5400703D5206840F414
:10098000E05020602878000703D5206840F46040DC
:1009900020602068A96820F0F000084320602878D3
:1009A000C0072DD0304968680839012812D00228C4
:1009B00013D0032811D00968890700292DDA21688E
:1009C00021F0030101432160FFF7F2FE814641F26D
:1009D000883A0EE009688903EFE709688901ECE7C6
:1009E000FFF7E6FEA0EB0901514502D90320BDE85F
:1009F000F0872068696800F00C00B0EB810FEFD140
:100A0000D8F80010404601F00F01B14207D9077035
:100A1000006800F00F00B04201D00120E7E728781D
:100A2000400705D52068E96820F4E05008432060BD
:100A30002878000706D52068296920F4604040EA3C
:100A4000C100206000F058F82168084AC1F3031182
:100A5000515CC8400649086006480068FFF7D0FEB0
:100A60000020C4E7003C024008380240A0310008E2
:100A70003C000020340000200F2202600C4A136862
:100A800003F003034360136803F0F003836013680B
:100A900003F4E053C36012684FF4E05303EAD20258
:100AA00002610448006800F00F0008607047000011
:100AB00008380240003C02400448054900680968C3
:100AC000044AC1F38221515CC84070473C000020B9
:100AD00008380240B0310008044805490068096838
:100AE000044AC1F34231515CC84070473C000020C9
:100AF00008380240B0310008154810B5006810F001
:100B00000C02144813D01449042A0FD0082A0ED11D
:100B10000F4C241F2268236802F03F025B0207D5B6
:100B20002068C0F38810A0FB010106E0084610BD54
:100B30002168C1F38811A1FB00010023FFF7F4FB3A
:100B40002168C1F30141491C4900B0FBF1F010BD1F
:100B5000083802400024F40040787D012DE9F84F68
:100B600004006ED02078DFF83C93C007A9F104059B
:100B70004AD009F104000168C1F38101012908D0BC
:100B80000068C0F3810002280AD1D9F800004002B1
:100B900006D52868800337D560680028E1D033E0A7
:100BA0006068B0F5803F10D0B0F5A02F286810D055
:100BB00020F480302860286820F480202860606855
:100BC000A8B1FFF7F5FD06460DE0286840F4803037
:100BD000F4E740F480202860F7E700BFFFF7E8FD66
:100BE000801B642873D828688003F7D50CE0FFF7D2
:100BF000DFFD064605E000BFFFF7DAFD801B642835
:100C0000F0D828688003F7D42078DFF89C8280072A
:100C10004FF0000A3ED5A348001D016811F00C0FEB
:100C200008D00068C0F3810002280BD1D9F8000079
:100C3000400207D42868800716D5E068012800D153
:100C400012E02BE1E068B8B10120C8F80000FFF71E
:100C5000AFFD064605E000BFFFF7AAFD801B022896
:100C6000C0D828688007F7D52868216920F0F800E7
:100C700040EAC10028600DE0C8F800A0FFF798FD29
:100C8000064604E0FFF794FD801B02281FD8286861
:100C90008007F7D42078000722D5824E8348616907
:100CA000703671B101210160FFF782FD074604E053
:100CB000FFF77EFDC01B022809D830688007F7D5F2
:100CC0000EE0C0F800A0FFF773FD074605E082E0E4
:100CD000FFF76EFDC01B02287DD830688007F7D46F
:100CE0002078400768D5DFF8BCB100270BF13C0B3A
:100CF000DBF80000C0000BD4DBF8001041F080519D
:100D0000CBF80010DBF80000012700F080500090C5
:100D1000674E3068C00510D4306840F48070306091
:100D2000FFF746FD009005E0FFF742FD0099401AED
:100D3000022850D83068C005F6D55A4EA0686C36E7
:100D400001280FD00528306810D020F00100306055
:100D5000306820F004003060A068B8B1FFF728FDCB
:100D600000900FE0306840F00100F4E740F004002C
:100D70003060F7E7FFF71CFD0099411A41F2883017
:100D8000814266D830688007F4D50EE0FFF710FD89
:100D9000009007E0FFF70CFD0099411A41F28830FE
:100DA000814256D830688007F4D42FB1DBF80010A8
:100DB00021F08051CBF80010A069C8B33949091D52
:100DC0000968C1F3810102294AD00228504607D0A0
:100DD000C8F8600000E03CE0FFF7EAFC04463BE0B6
:100DE0004746C8F86000FFF7E3FC064605E000BF91
:100DF000FFF7DEFC801B02282BD828688001F7D47F
:100E0000D4E907010843A16A2A4A490802EB0141D3
:100E1000626A41EA8211084394F82C1040EA0161A9
:100E2000C9F8001001203866FFF7C2FC044606E04E
:100E300036E000BFFFF7BCFC001B022809D8286879
:100E40008001F7D52CE000BFFFF7B2FC001B0228A1
:100E500002D90320BDE8F88F28688001F4D41FE090
:100E60000128F7D0D9F80000E26900F4800191422E
:100E700014D1226A00F03F0191420FD147F6C071B0
:100E8000626A0140914209D1A26A00F44031914264
:100E900004D1E16A00F07060884201D00120D9E7F6
:100EA0000020D7E70438024000004742800E474246
:100EB000007000400000FFFF7047704710B504004D
:100EC00003D094F83D0010B107E0012010BD0020D0
:100ED00084F83C00204600F00CF8022084F83D0025
:100EE000211D206800F020FC012084F83D00002036
:100EF00010BD70470168CA6842F00102CA6000680C
:100F0000816801F00701062903D0016841F0010161
:100F1000016000207047704770B5044600680169A1
:100F20004FF00005C943890715D4C168C943890733
:100F300011D4E91E016101202077206880698007B3
:100F4000204602D0FFF7E7FF04E000F098F82046C3
:100F500000F096F8257720680169C943490717D43E
:100F6000C168C943490713D46FF00401016102202D
:100F700020772068806910F4407F204602D0FFF778
:100F8000CAFF04E000F07BF8204600F079F82577EE
:100F900020680169C943090716D4C168C943090714
:100FA00012D46FF008010161042020772068C06925
:100FB0008007204602D0FFF7AEFF04E000F05FF8A4
:100FC000204600F05DF8257720680169C943C9060D
:100FD00017D4C168C943C90613D46FF01001016169
:100FE000082020772068C06910F4407F204602D096
:100FF000FFF791FF04E000F042F8204600F040F8CF
:10100000257720680169C943C90708D1C168C94368
:10101000C90704D1891E0161204600F033F8206819
:101020000169C943090609D4C168C943090605D441
:101030006FF0800101612046FFF73EFF20680169E3
:10104000C943490609D4C168C943490605D46FF0AC
:1010500040010161204600F01FF820680169C94382
:1010600089060BD4C168C943890607D46FF02001F3
:1010700001612046BDE87040FFF71FBF70BD70479B
:101080007047000000680349884201D1FFF796BB12
:1010900070470000000001407047704770B502685B
:1010A00004461068D168536910F00F0F52D003F056
:1010B000010501F490762E435FD0C20705D0CA0522
:1010C00003D5E26B42F00102E263420705D5DA077D
:1010D00003D0E26B42F00202E263820705D5DA0731
:1010E00003D0E26B42F00402E263020707D501F08D
:1010F00020022A4303D0E26B42F00802E263E26B73
:10110000002A33D0800604D5880602D5204600F098
:1011100085FB20684069E16BC0F38010090700D4AB
:1011200028B3204600F06CFB2068416949061AD5B7
:10113000416921F040014161606BA0B11B4901652B
:10114000606BFFF746FA002810D0606B016DBDE8B8
:1011500070400847830610D58B060ED52046BDE8A3
:10116000704000F05BBB2046FFF797FF70BD204644
:10117000FFF793FF0020E06370BD030606D50B0662
:1011800004D52046BDE8704000F028BC4006F3D5E9
:101190004806F1D5D168204621F04001D1602021D8
:1011A00084F8391000F0FBF870BD0000F11700085A
:1011B00070B5040004D094F83900002510B106E0A1
:1011C000012070BD84F83850204600F023F8242018
:1011D00084F839002068C16821F40051C1602046BC
:1011E00000F068FB2068016921F4904101612068EA
:1011F000416921F02A0141612068C16841F4005130
:10120000C160E563202084F8390084F83A000020AA
:1012100070BD000010B586B0044614216846FFF783
:1012200071F918492068884229D1174800210268BD
:1012300042F010020260006800F0100005901248B1
:101240001438026842F001020260006800F00100F8
:1012500005904FF4C06000900220CDE90101032009
:1012600003900720049069460848FFF7C5F900225B
:1012700005212520FFF734FB2520FFF723FB06B0CF
:1012800010BD000000100140443802400000024040
:1012900090F83A30202B22D1F9B1F2B190F83830E1
:1012A000012B1CD081628285C2850021C16322226C
:1012B00080F83A2080F838100168CA6842F48072D9
:1012C000CA6001684A6942F001024A610068C16867
:1012D00041F02001C16000207047012070470220CA
:1012E000704770472DE9F843044690F839001F46CF
:1012F00016460D46202850D1B5B1AEB194F838004D
:1013000001284AD0012084F838004FF00008C4F8C2
:101310003C80212084F83900FFF74AFAA6848146F0
:10132000E68484F8388026E00120BDE8F883E08C6C
:10133000401EE084A0684B46B0F5805F4FF000028D
:101340004FF080012046009703D000F078FBE8B909
:101350000DE000F074FBC8B928882168C0F30800CC
:101360004860206908B16D1C05E0AD1C03E02168F0
:1013700015F8010B4860E08C0028D8D14B460022BC
:1013800040212046009700F05AFB08B10320CCE72B
:10139000202084F839000020C7E70220C5E7704705
:1013A000FEE7000030B53B4DBBB02AAC95E80F001E
:1013B00084E80F0000212AA800F0FAFB364C103513
:1013C0000DF1B80CE06195E80F008CE80F000021EA
:1013D0002EA8103D00F0ECFB2035206295E80F00B0
:1013E0000DF1C80C203D8CE80F00002132A800F060
:1013F000DFFB3035606295E80F0036AD85E80F0001
:10140000002136A800F0D4FB2249A0621C22403102
:101410006846FFF745F80021684600F055FC1D4975
:1014200060601C225C3107A8FFF73AF8002107A88A
:1014300000F04AFC1749A0601C2278310EA8FFF783
:101440002FF800210EA800F03FFC1249E0601C229A
:10145000943115A8FFF724F8002115A800F034FCFA
:101460000C4920611C22B0311CA8FFF719F800219B
:101470001CA800F029FC074960611C22CC3123A87C
:10148000FFF70EF8002123A800F01EFCA0613BB07E
:1014900030BD0000B830000804000020094808B53D
:1014A000016841F001010160016801F00101009152
:1014B000016841F080010160006800F08000009048
:1014C00008BD0000303802400C4810B50A490160E0
:1014D0004FF4E1314160002181600C22C160C0E91C
:1014E00004128161C161FFF763FE002803D0BDE8EB
:1014F0001040FFF76CB810BD00100140340300200D
:10150000FEE7FEE7012000F039FBFBE7012000F0D9
:1015100035FBFBE7012000F031FBFBE7012000F089
:101520002DFBFBE792B000F037FB1190AA208DF85D
:10153000000055208DF8010001208DF802008DF883
:1015400003000D208DF81F002E4D0A208DF820007D
:101550004FF4FA762C46314611A800F016FB002213
:101560000EA8E96900F038FB0E9810282FD000F083
:1015700013FB9FED250A01908DED020A9FED230AD2
:101580005FF000008DED030A9FED210A8DED040A46
:101590009FED200A8DED050A8DF8180020788DF852
:1015A000190060788DF81A00A0788DF81B00E0789B
:1015B0008DF81C001D21684600F0A3FAADF81D004F
:1015C0002121684600F0BAFE00F0A8FBC3E7142210
:1015D00009A80F99FEF71FFF00F0DEFA01909DEDBC
:1015E000090A8DED020A9DED0A0A8DED030A9DEDB3
:1015F0000B0A8DED040A9DED0C0A8DED050A9DF890
:101600003400C9E7040000200000CC4100009643EC
:101610000000484200000000074C42F2107500BF75
:1016200000F0BAFA01460022606A00F01FFB28466B
:1016300000F0A4FAF4E700000400002010B55020E8
:1016400080F31188BFF34F8FBFF36F8F01F0E2FB80
:1016500018B104494FF080500860002080F31188D1
:1016600010BD000004ED00E030B593B030216846B5
:10167000FEF748FF14210CA8FEF744FF1E48002582
:10168000016841F080510160006800F080501190C5
:101690001A48016841F4804101600068022400F4A6
:1016A0008040119001200090000401908001CDE95C
:1016B0000640192008904FF4A870CDE909040420D1
:1016C0000B906846FFF74AFA08B172B6FEE70CA91C
:1016D0000F2081E831004FF4A0500F904FF480505C
:1016E000109005210CA8FFF72DF9002801D072B643
:1016F000FEE713B030BD00004038024000700040EB
:101700000548016841F47001016003494FF0006031
:10171000803908607047000088ED00E00148FFF75D
:10172000FBBB000074030020F0B50268254C264D79
:10173000264E274F274B4FF0804CA04209D06045E2
:1017400007D0A84205D0B04203D0B84201D0984299
:1017500004D122F0700E4A6842EA0E02A0421BD069
:10176000604519D0A84217D0B04215D0B84213D066
:10177000984211D0184DA8420ED0184DA8420BD057
:10178000174DA84208D0174DA84205D0164DA842C3
:1017900002D0164DA84203D122F44075CA682A43EC
:1017A0004D6922F080022A4302608A68C2620A6898
:1017B0008262A04201D0984201D1096901630121EE
:1017C0004161F0BD000001400004004000080040FD
:1017D000000C004000040140004001400044014072
:1017E0000048014000180040001C0040002000405C
:1017F00010B5806B0021C185C184FFF74EFC10BD80
:101800000168CA6822F49072CA6001684A6922F0CD
:1018100001024A61202180F83A10704710B590F813
:101820003A10222901D0022010BD8168B1F5805FF5
:1018300011D00169002901681FD0496801F07F03B8
:10184000816A4A1C82620B70C18D491E0904090C11
:10185000C18518D02BE00269816A002A02685268AB
:1018600005D0D2B20A80816A491C8162ECE7C2F3DA
:1018700008020A80816A891CF7E74A68816A4B1C62
:1018800083620A70E0E70168CA6822F02002CA6039
:101890000168CA6822F48072CA6001684A6922F04D
:1018A00001024A61202180F83A10FFF71AFD00205A
:1018B00010BD00002DE9F041044600680169E268AE
:1018C00021F44051114301612169A068E269084394
:1018D0006169114308432168CA6849F20C639A435D
:1018E0000243CA6020684169A26921F44071114332
:1018F0004161E069192764253226B0F5004F354A69
:10190000354920684FF0000806D0884201D0904247
:1019100036D1FFF7E1F835E0884201D0904202D19C
:10192000FFF7DAF801E0FFF7C7F861684A18A0FB93
:10193000070148EB0803FEF7F7FC0146B0FBF5F0A2
:101940000201B1FBF5F06FF01803584301EB800082
:1019500006EBC000B0FBF5F000F0F80002EB40022F
:10196000B1FBF5F0584301EB800006EBC000B0FB83
:10197000F5F000F00700216810448860BDE8F081B0
:10198000FFF79AF861688B0F8A00A0FB0701FEF74A
:10199000CBFC0146B0FBF5F06FF01802504301EBB1
:1019A000800006EB0010B0FBF5F000F0F002B1FB98
:1019B000F5F002EB0012B1FBF5F06FF0180358439D
:1019C00001EB800006EB0010B0FBF5F000F00F001B
:1019D000D1E70000001401400010014090F83910D8
:1019E000212901D0022070478168B1F5805F016A2A
:1019F0000BD04A1C0262026809785160C18C491EF2
:101A00000904090CC1840ED017E009880268C1F3EB
:101A10000801516001690029016A02D0491C016274
:101A2000ECE7891CFBE70168CA6822F08002CA6003
:101A30000068C16841F04001C160002070472DE995
:101A4000F041984617460E460446069D1DE0681C68
:101A50001BD02DB1FEF7ACFEA0EB0800A84214D9B4
:101A60002068C16821F4D071C1602068416921F00B
:101A700001014161202084F8390084F83A000020F7
:101A800084F838000320BDE8F0812068006836EA59
:101A9000000004D00020B842D9D00020F3E7012094
:101AA000F9E700000C4808B500680168C9438906D9
:101AB0000DD440680022C1B208488DF800100068BB
:101AC00000F0D4F8012269460348FFF7E1FB024821
:101AD000FFF7E4FA08BD0000340300202C000020CA
:101AE000FEE70907090E002804DB00F1E02080F87A
:101AF0000014704700F00F0000F1E02080F8141D82
:101B0000704770B505464FF6FF7000224AF2010497
:101B10000EE0AB5C58400023C60702D084EA5000B8
:101B200000E040085B1CDBB2082BF5D3521C92B2DC
:101B30008A42EED370BDEFF30580002800D001206B
:101B400070470000FEF742FEFFF78EFDFFF7A6FC90
:101B5000FFF7BAFC05480068C16841F02001C16088
:101B6000FFF720FC00F013F8FEE70000340300202C
:101B700001460020842900D0C81C704710B500B968
:101B8000012000F0D3FC002010BD8120704710B56B
:101B900000F018FD002010BD10B5FFF7CCFF18B104
:101BA000BDE8104001F02EB9BDE8104001F024B9A5
:101BB00038B5D0E9011204683AB1C3682BB10020EE
:101BC0000090204600F008FE38BD2046BDE83840B1
:101BD000002200F0DDBD00002DE9FF410D004FF0B7
:101BE0000006CDE9016507461ED000240396501C6F
:101BF0001FD002B11446FFF79EFF69464FF0100850
:101C0000E8B103AA2846091D01F008F8012813D0FD
:101C100000960398E8B114494FF080500860BFF374
:101C20004F8FBFF36F8F14E0802031462A4600901B
:101C300011E04FF0FF34DEE7CDF80080E9E72246FF
:101C40002846091D00F04EFF012808D054B140205D
:101C500000909DE8070087E80700BDE8FF81CDF808
:101C60000080F6E70020F3E704ED00E037B5054615
:101C700082B000200090140000D10124FFF75BFF28
:101C80004FF0000388B16A4603A9284600F0CCFE55
:101C9000012811D1009890B10A494FF08050086096
:101CA000BFF34F8FBFF36F8F09E0224603A9284689
:101CB00000F00AFE012802D0FF2005B030BD002050
:101CC000FBE7000004ED00E07FB50D4604464169E6
:101CD000B0F9080081B1A16971B1FFF749FFD4E9FA
:101CE00005128DE80700D4E900102B46226901F0A7
:101CF0004AF8039004B070BDFFF73AFF03A9CDE99D
:101D00000001208A2B4682B2D4E9001001F00EF8BF
:101D1000012801D00020EDE70398EBE72DE9FE4311
:101D2000214D0026214C224F33E021786854491C74
:101D3000C8B22070022808D3291811F8022C0D2AE5
:101D400003D111F8011C0A2902D0402821D31FE039
:101D500008281DD32878BB281AD16878662817D19F
:101D6000DFF8448006214046FFF7CBFEB8F80410A8
:101D700081420DD198F802008DF8000098F8030018
:101D80008DF801000B48002269460068FFF76EFFDE
:101D90002670002268463968FFF71EFFDDE9001053
:101DA0001029C2D0BDE8FE83A00000200000002062
:101DB0002C000020240000202DE9F041184C0F4693
:101DC000054666692068001D00F0C2FA38B920682F
:101DD00090F82C1001208840A1698143A161681C02
:101DE00007D137B12168BDE8F0410E48091D00F068
:101DF000F3BA20683544B5424560216805D2A06831
:101E0000BDE8F041091D00F0CFBA6068091D00F07F
:101E1000CBFA206B854200D22563BDE8F08100003B
:101E200040000020900400202DE9F041054600F01C
:101E3000DFFA2E4C2069401C206120682C4F10B125
:101E4000E06940B32DE025602069012829D10026F2
:101E500006EB860007EB800000F098FA761C072E50
:101E6000F6D323488C3000F091FA2148A03000F0DE
:101E70008DFA1F48B43000F089FA1D48C83000F0D0
:101E800085FA1B48DC3000F081FA19488C3060601C
:101E90001430A06005E02068E96AC06A884200D872
:101EA0002560E06A401CE062E96A0120A26988407E
:101EB0001043A06101EB810007EB8000291D00F0B9
:101EC0008BFA00F0B5FAE06900280CD02068E96AC6
:101ED000C06A884207D207494FF080500860BFF3BC
:101EE0004F8FBFF36F8FBDE8F081000040000020EE
:101EF000B403002004ED00E030B4026C0B46002A6D
:101F00000BD0C1681144C1608468A14201D301684B
:101F1000C16030BC1846FEF77EBA30BC70472DE970
:101F2000F041856B174604460026026C82B1C7B1AA
:101F3000E068FEF770FAE168206C091AE160226837
:101F4000914202D2A168081AE060022F16D017E071
:101F50002068A8B9A06800F0C1FF06460020A06074
:101F60000EE06068FEF757FA216C60680844606014
:101F7000A168884204D32068606001E005B16D1E4D
:101F80006D1CA5633046BDE8F08110B5044690F89D
:101F9000510058B101280CD002280FD0502080F3F6
:101FA0001188BFF34F8FBFF36F8FFEE7206B00F0F8
:101FB00053FA2046BDE8104000F04EBA10BD0000B4
:101FC00010484FF47051420706D0C01D0D4920F053
:101FD0000700411AC1F570510B4A00230144C2E9C0
:101FE00000030839103A21F0070111604B600B60C3
:101FF0000B1AC0E9001393604FF000405360D060AB
:1020000070470000A40400208C000020144E154CE2
:10201000A6F1C8074FF08058DFF84C9012E000BFDF
:1020200000F0E6F9F068C568281D00F091F9206914
:10203000401E2061E068401EE06000F0F9F928468B
:10204000FFF7A3FFE0680028EAD138680128F9D932
:10205000C9F80080BFF34F8FBFF36F8FF2E7000026
:102060007C0400204000002004ED00E003460098BE
:1020700029B10260C0E90F31012100F0E1BB00602D
:10208000F8E72DE9F0479A46DDE9098481466FF0CB
:102090000303206B03EB82021044089E20F0070725
:1020A000780707D0502080F31188BFF34F8FBFF31C
:1020B0006F8FFEE7002561B1002023180A5C83F8CA
:1020C00034200A5C12B1401C1028F6D384F8435027
:1020D00001E084F83450072E00D30626E662C4E9F6
:1020E0001165201D00F05DF904F1180000F059F9A8
:1020F0002461C6F107006462A061E56484F8505071
:1021000052464946384600F003F92060B8F1000F06
:1021100001D0C8F80040BDE8F087000030B5114993
:1021200000E011460A688242FBD34B685C18844287
:1021300003D1406818444860084643681C1894421C
:1021400009D1084C103C2468A24209D052681A44B4
:1021500042600A6812680260814200D0086030BDA7
:102160000460F9E78C00002010B5044600F040F947
:10217000A06B28B15FF0000400F05AF9204610BDB2
:102180000124F9E706484168096829B14168C9682E
:10219000C9684968016370474FF0FF31FAE70000F2
:1021A0004000002008484068401C4FF0500080F379
:1021B000118804D0BFF34F8FBFF36F8FFEE7BFF3DB
:1021C0004F8FBFF36F8FFEE7940000202DE9F041A1
:1021D000044600F00DF994F9455004F1240609E095
:1021E000606A48B1304600F0C5FE08B100F0CCF995
:1021F0006D1E6DB2002DF3DC4FF0FF3684F84560A4
:1022000000F016F900F0F4F894F9445004F11007C6
:1022100009E0206948B1384600F0ACFE08B100F092
:10222000B3F96D1E6DB2002DF3DC84F84460BDE897
:10223000F04100F0FDB800002DE9F041054600270F
:1022400000F0F6F9314E306808B9FFF7B9FEF068D2
:1022500005424BD1C5B3083568070ED005F007001D
:10226000C0F108000544680707D0502080F31188AA
:10227000BFF34F8FBFF36F8FFEE72DB370688542BA
:1022800034D82248103001460C6801E020460C4644
:102290006168A94202D221680029F7D131688C42D5
:1022A00024D007682168016060680837411B102945
:1022B0000FD96019420708D0502080F31188BFF36E
:1022C0004F8FBFF36F8FFEE710E041606560FFF74F
:1022D00025FF61687068401A7060B268904200D251
:1022E000B060F06801430020C4E9000100F07CFE0A
:1022F000780707D0502080F31188BFF34F8FBFF3CA
:102300006F8FFEE73846BDE8F08100007C000020BA
:1023100010B5031F4FF080741C601B1F21F00101DA
:102320001960191F044B0B6014390A60091F6FF004
:10233000020244380A6010BDA52100080A46014681
:102340004FF0FF330148FEF7CDBF000034030020FB
:10235000D0E9013201699A60D0E901235A604A68E4
:10236000824201D182684A60002202610868401EF0
:102370000860086870470000034B036003F15400D5
:102380000860802010607047E000002000F1080124
:102390004FF0FF32C0E90112C1600161002101600C
:1023A000704700210161704730B50B685A1C02D09C
:1023B00000F1080202E0026904E022465468256840
:1023C0009D42FAD953684B6099608A6051600861F8
:1023D0000168491C016030BD42684A6093688B60A7
:1023E00093685960916008610168491C01607047F9
:1023F000502080F31188BFF34F8FBFF36F8F0A49CE
:102400004868401C486001280CD10848006810F05A
:10241000FF0F07D0502080F31188BFF34F8FBFF319
:102420006F8FFEE7704700009400002004ED00E08D
:102430000849486828B1401E486001D180F31188DE
:102440007047502080F31188BFF34F8FBFF36F8F19
:10245000FEE700009400002070B5002827D0144D3E
:10246000A0F108046168E868014207D1502080F3B8
:102470001188BFF34F8FBFF36F8FFEE722683AB129
:10248000502080F31188BFF34F8FBFF36F8FFEE7AB
:102490008143616000F0CCF8606869680844686056
:1024A0002046FFF73BFEBDE8704000F09DBD70BDCB
:1024B0007C0000204FF0E02000210161816105498E
:1024C0004FF47A720968B1FBF2F1491E41610721AC
:1024D000016170473C00002010B5FDF701FF114974
:1024E00010280ED300F1E02090F8F0030A78904213
:1024F00007D2502080F31188BFF34F8FBFF36F8F47
:10250000FEE709480068896800F4E060884207D95E
:10251000502080F31188BFF34F8FBFF36F8FFEE71A
:1025200010BD0000940000200CED00E010B502008A
:1025300014D00F48806B38B1502080F31188BFF35E
:102540004F8FBFF36F8FFEE700F072F80021104647
:10255000FFF732FC00F048FD002807D105494FF095
:1025600080500860BFF34F8FBFF36F8F10BD000026
:102570004000002004ED00E002498A6A02604969D7
:1025800041607047400000200149012048627047C7
:102590004000002010B50C4650B1094909681831B7
:1025A000FFF702FF2046BDE810400121FFF704BC01
:1025B000502080F31188BFF34F8FBFF36F8FFEE77A
:1025C0004000002010B586B00024039405AA04A999
:1025D00003A80494FFF7D0FEDDE903010094CDE9E0
:1025E000011000230EA11048059A00F0CCFB0F4902
:1025F0000028486311D0502080F31188BFF34F8F1B
:10260000BFF36F8F4FF0FF3008630120C8614C614A
:1026100006B0BDE8104000F041B806B010BD0000A3
:1026200049444C45000000000D20000840000020F7
:102630000248816B491C8163704700004000002004
:102640001448816B11B10121416270470021416240
:102650008169B1FA81F1C1F11F0101EB81020E49DB
:1026600051F822306BB101EB820101F108034A6895
:1026700052684A609A4201D152684A60D16801604A
:102680007047502080F31188BFF34F8FBFF36F8FD7
:10269000FEE7000040000020B40300201CB53748CE
:1026A0000168374A914207D1502080F31188BFF367
:1026B0004F8FBFF36F8FFEE700683149491E884294
:1026C00007D1502080F31188BFF34F8FBFF36F8F76
:1026D000FEE72C4908780190FF20087008788DF8F3
:1026E00000009DF800009DF8002000F0F0009042EE
:1026F00007D0502080F31188BFF34F8FBFF36F8F47
:10270000FEE79DF80000204B00F0500018700720F5
:10271000986005E09DF8002052008DF80020401ED2
:102720009DF800201206F5D49860032807D05020A9
:1027300080F31188BFF34F8FBFF36F8FFEE74FF425
:1027400040709860019808700C482030016841F48E
:1027500070010160016841F070410160FFF7AAFE5D
:1027600000205860FDF784FD0848016841F04041B1
:102770000160FDF769FD00201CBD000000ED00E0D8
:1027800071C20F4100E400E09400002034EF00E04B
:10279000F8B517460E46050014D0DEB105FB06F06D
:1027A0004830FFF749FD04000AD0002084F84600B5
:1027B00004F148023B46314628460094FFF756FC98
:1027C0002046F8BD502080F31188BFF34F8FBFF330
:1027D0006F8FFEE70020E3E738B5049D18B153B1D1
:1027E000CAB181B120E0502080F31188BFF34F8F30
:1027F000BFF36F8FFEE7502080F31188BFF34F8F38
:10280000BFF36F8FFEE7502080F31188BFF34F8F27
:10281000BFF36F8FFEE739B1502080F31188BFF30B
:102820004F8FBFF36F8FFEE748241C46012384F8C7
:1028300046302B460094FFF719FC204638BD0000B7
:1028400070B50D46040025D0FFF7D2FDD4E90F2066
:10285000216802FB0011A1600021A1632168616071
:102860000A46D4E90F01401E00FB0121E160214628
:102870004FF0FF3001F8440F487004F110008DB1A3
:10288000FFF784FD04F12400FFF780FDFFF7D0FD82
:10289000012070BD502080F31188BFF34F8FBFF32C
:1028A0006F8FFEE721690029F0D000F063FB00285C
:1028B000ECD004494FF080500860BFF34F8FBFF356
:1028C0006F8FE3E704ED00E02DE9FF4782B01D467E
:1028D0008A464FF00008040003D0BAF1000F08D078
:1028E00011E0502080F31188BFF34F8FBFF36F8F3B
:1028F000FEE7206C38B1502080F31188BFF34F8F72
:10290000BFF36F8FFEE7022D0AD1E06B012807D0DD
:10291000502080F31188BFF34F8FBFF36F8FFEE716
:1029200000F05CFA3F4F4FF000094FF0805648B975
:10293000049838B1502080F31188BFF34F8FBFF354
:102940006F8FFEE7FFF754FDA06BE16B884207D362
:10295000022D05D00498D0B1B8F1000F1AD01EE0B6
:102960002A4651462046FFF7DAFA616A19B104F1A6
:10297000240000F0FFFA20B13E60BFF34F8FBFF399
:102980006F8FFFF755FD012006B0BDE8F087FFF718
:102990004FFD22E06846FFF7EFFD4FF00108FFF71B
:1029A00047FDFFF745FEFFF723FD94F94400401C67
:1029B00001D184F8449094F94500401C01D184F879
:1029C0004590FFF735FD04A9684600F075F930B170
:1029D0002046FFF7FBFB00F007FB0020D4E7FFF7E2
:1029E00007FDA06BE16B884213D1FFF721FD04F1D5
:1029F00010000499FFF7CEFD2046FFF7E7FB00F03B
:102A0000F3FA00289ED13E60BFF34F8FBFF36F8F64
:102A100098E7FFF70DFD2046FFF7D8FB00F0E4FA3A
:102A200090E7000004ED00E02DE9F0471F469046D6
:102A30008946040003D0B9F1000F08D011E05020FE
:102A400080F31188BFF34F8FBFF36F8FFEE7206CC9
:102A500038B1502080F31188BFF34F8FBFF36F8FD1
:102A6000FEE7022F0AD1E06B012807D0502080F347
:102A70001188BFF34F8FBFF36F8FFEE7FFF72CFD79
:102A80005020EFF3118680F31188BFF34F8FBFF30F
:102A90006F8FA06BE16B884206D3022F04D0002019
:102AA00086F31188BDE8F08794F945503A464946C7
:102AB0002046FFF734FA681C04D06D1C84F845509A
:102AC0000120EDE7606A0028FAD004F1240000F04C
:102AD00051FA0028F4D0B8F1000FF1D00121C8F864
:102AE0000010EDE72DE9F747002683B08A46040081
:102AF00003D0BAF1000F08D011E0502080F3118804
:102B0000BFF34F8FBFF36F8FFEE7206C38B15020BB
:102B100080F31188BFF34F8FBFF36F8FFEE700F094
:102B20005DF9DFF8F4804FF000094FF0805748B9A5
:102B3000059838B1502080F31188BFF34F8FBFF351
:102B40006F8FFEE7FFF754FCA56BC5B151462046D9
:102B5000FFF7D2F96D1EA563206950B104F1100092
:102B600000F008FA28B1C8F80070BFF34F8FBFF328
:102B70006F8FFFF75DFC012006B0BDE8F087059878
:102B800008B11EB106E0FFF753FC27E06846FFF7E7
:102B9000F3FC0126FFF74CFCFFF74AFDFFF728FC8A
:102BA00094F94400401C01D184F8449094F9450004
:102BB000401C01D184F84590FFF73AFC05A968460E
:102BC00000F07AF8002820460AD0FFF7FFFA00F05C
:102BD0000BFA2046FFF7C8FA0028B3D00020CBE755
:102BE000FFF7C2FA90B104F124000599FFF7D2FC77
:102BF0002046FFF7EBFA00F0F7F90028A2D1C8F859
:102C00000070BFF34F8FBFF36F8F9BE72046FFF736
:102C1000DDFA00F0E9F995E704ED00E02DE9F04771
:102C200090468946040003D0B9F1000F08D011E0A6
:102C3000502080F31188BFF34F8FBFF36F8FFEE7F3
:102C4000206C38B1502080F31188BFF34F8FBFF351
:102C50006F8FFEE7FFF740FC5020EFF3118680F303
:102C60001188BFF34F8FBFF36F8FA76BF7B194F944
:102C7000445049462046FFF73FF97F1EA763681C72
:102C800004D06D1C84F84450012010E02069002815
:102C9000FAD004F1100000F06DF90028F4D0B8F17A
:102CA000000FF1D00121C8F80010EDE7002086F3F5
:102CB0001188BDE8F08700002DE9F0410C460500C1
:102CC00011D0C4B1FFF794FB174B5A696E682068A6
:102CD000911B471C17D02F689B6A9F4219D09642C0
:102CE00017D8012410E0502080F31188BFF34F8FD4
:102CF000BFF36F8FFEE7502080F31188BFF34F8F33
:102D0000BFF36F8FFEE70024FFF792FB2046BDE87C
:102D1000F081884205D9401A20602846FFF72CFC34
:102D2000F1E700202060DCE7400000202DE9FF5F94
:102D30008346DDE90E87994616468A469000FFF7DE
:102D40007BFA05001CD05420FFF776FA040014D05B
:102D50000020256384F85100CDE90240CDE90087C9
:102D60004B46324651465846FFF78BF92046FFF74F
:102D70005BF8012004B0BDE8F09F2846FFF76CFB2C
:102D80004FF0FF30F6E7F0B585B0DDE90B640A9D42
:102D9000A6B1DCB1542700972663022684F851605F
:102DA000002604AFCDE90246CDE90057FFF769F9E7
:102DB0002046FFF739F8049805B0F0BD502080F3A5
:102DC0001188BFF34F8FBFF36F8FFEE7502080F362
:102DD0001188BFF34F8FBFF36F8FFEE70548C169BE
:102DE00019B1806B18B10020704701207047022094
:102DF0007047000040000020014840697047000013
:102E00004000002010B5FFF767FB0148406910BD86
:102E1000400000202DE9F0412E4C0027A06B40B16E
:102E2000206A401C2062606A00B101273846BDE874
:102E3000F0816669761C666113D16068006838B1FC
:102E4000502080F31188BFF34F8FBFF36F8FFEE7E1
:102E50006068A1686160A060A06A401CA062FFF782
:102E600091F9206BDFF87080864209D360680068B2
:102E700080B16068C068C568686886420DD220630A
:102E80002068C06A00EB800158F821000128CAD9E7
:102E90000127C8E74FF0FF30F1E7281DFFF758FA88
:102EA000A86A18B105F11800FFF752FAE86A012183
:102EB000A26981401143A16100EB800108EB810010
:102EC000291DFFF789FAE86A2168C96A8842CDD3CB
:102ED0000127CBE740000020B403002070B50400B8
:102EE0004FF0000140D0214D2868844207D0502087
:102EF00080F31188BFF34F8FBFF36F8FFEE7A06C95
:102F000038B1401EA064636CE26A9A422CD040B192
:102F10002AE0502080F31188BFF34F8FBFF36F8FEB
:102F2000FEE7201DFFF714FA114A012150B9E06AAB
:102F300000EB800352F8233023B9AB6901FA00F0AB
:102F40008343AB61606CE062C0F10700A061E06A9E
:102F5000AB6981401943A96100EB800002EB80005E
:102F6000211DFFF739FA0121084670BD40000020FD
:102F7000B40300202DE9F041C068C468ACB104F18D
:102F800018000746FFF7E4F9154DA86B0126A0B11C
:102F900039461448FFF720FAE06A2968C96A88426E
:102FA0001CD901206E62BDE8F081502080F31188A9
:102FB000BFF34F8FBFF36F8FFEE7201DFFF7C8F9F8
:102FC000E16AAA6906FA01F01043A86101EB8100E9
:102FD0000449B43901EB8000211DDBE70020E2E762
:102FE00040000020680400202DE9F0472C4D00240B
:102FF0002746A86B38B1FFF7FBF9A86B401EA86302
:10300000A86B40B146E0502080F31188BFF34F8F8A
:10301000BFF36F8FFEE72969224E0120D1B3A6F1DD
:10302000B40980463068E8B1F068C46804F118005B
:10303000FFF78EF9201DFFF78BF9E06AAA6908FAFD
:1030400000F11143A96100EB800109EB8100211D12
:10305000FFF7C2F9E06A2968C96A8842E2D3C5F875
:103060002480DFE70CB1FFF78DF82C6A44B14646A7
:10307000FFF7D0FE00B16E62641EF9D10020286215
:10308000686A38B10849012738070860BFF34F8FD5
:10309000BFF36F8FFFF7CCF93846BDE8F08700002B
:1030A000400000206804002004ED00E04FF0407074
:1030B000E1EE100A704700000A0000000400000062
:1030C00000000000000000000A00000004000000F2
:1030D00000000000000000001400000004000000D8
:1030E000000000000000000040000000040000009C
:1030F0000000000000000000C831000805150008AD
:10310000000000000000000080000000000000003F
:1031100000000000FC3100080D150008010000004F
:10312000000000000002000000000000000000009D
:10313000D43100081515000802000000000000004E
:10314000000200000000000000000000B83100088C
:103150001D15000800000000000000000004000031
:103160000000000000000000E43100082515000800
:10317000000000000000000000020000000000004D
:1031800000000000F031000819160008FEFF0000E2
:10319000000000000002000000000000000000002D
:1031A00000000000000000000102030406070809F7
:1031B00000000000010203045461736B5F546F75DB
:1031C000636855490000000064656661756C74545D
:1031D00061736B005461736B5F436F6E74726F6CDD
:1031E000000000005461736B5F436F6D00000000CE
:1031F0005461736B5F4C6F67676572005461736BEA
:103200005F53656E736F7200283200080000002063
:10321000A0000000C4010008C8320008A00000207F
:1032200068460000E00100080000000032010000D4
:10323000000000000000000000000000000000008E
:10324000000000000000000000000000000000007E
:10325000000000000000000001000000100000005D
:10326000000000000024F400000000000000000046
:10327000000000000000000000000000000000004E
:10328000000000000000000000000000000000003E
:10329000000000000000000000000000000000002E
:1032A000000000000000000000000000000000001E
:1032B000000000000000000000000000000000000E
:0832C000AAAAAAAA000000005E
:040000050800018965
:00000001FF
