:020000040800F2
:1000000060510020E9020008ED18000855160008AC
:10001000C91800081F060008EF1E000800000000B5
:10002000000000000000000000000000290200089D
:10003000BB06000800000000850200084D1B0008F8
:100040000303000803030008030300080303000878
:100050000303000803030008030300080303000868
:100060000303000803030008030300080303000858
:100070000303000803030008030300080303000848
:100080000303000803030008030300080303000838
:100090000303000803030008030300080303000828
:1000A0000303000803030008030300080303000818
:1000B0000303000803030008030300080303000808
:1000C00003030008030300080303000803030008F8
:1000D00003030008030300080303000803030008E8
:1000E000030300080303000803030008091C0008B9
:1000F00003030008030300080303000803030008C8
:1001000003030008030300080303000803030008B7
:1001100003030008030300080303000803030008A7
:100120000303000803030008030300080303000897
:100130000303000803030008030300080303000887
:100140000303000803030008030300080303000877
:100150000303000803030008030300080303000867
:100160000303000803030008030300080303000857
:100170000303000803030008030300080000000055
:10018000030300080303000800F002F800F03CF845
:100190000AA090E8000C82448344AAF10107DA45E2
:1001A00001D100F031F8AFF2090EBAE80F0013F0F8
:1001B000010F18BFFB1A43F0010318478C380000E9
:1001C000AC380000103A24BF78C878C1FAD852077A
:1001D00024BF30C830C144BF04680C6070470000C1
:1001E0000023002400250026103A28BF78C1FBD840
:1001F000520728BF30C148BF0B6070471FB503F0DE
:1002000081FB1FBD10B510BD00F0D0F91146FFF7FE
:10021000F5FF01F07DFE00F0EEF903B4FFF7F2FF09
:1002200003BC00F0F5F900002C4B19680868B0E831
:10023000F04F80F30988BFF36F8F4FF0000080F319
:10024000118870470000000008480068006880F3CB
:1002500008884FF0000080F3148862B661B6BFF3DF
:100260004F8FBFF36F8F00DF00BF00BF08ED00E0CE
:10027000DFF80C00016841F470010160704700BFB5
:1002800088ED00E0EFF30980BFF36F8F134B1A681E
:100290001EF0100F08BF20ED108A20E9F04F10600B
:1002A00009B44FF0500080F31188BFF34F8FBFF3B4
:1002B0006F8F02F08BFD4FF0000080F3118809BCB6
:1002C00019680868B0E8F04F1EF0100F08BFB0ECD6
:1002D000108A80F30988BFF36F8F704738000020C1
:1002E000EFF3058070470000094880470948004740
:1002F000FEE7FEE7FEE7FEE7FEE7FEE7FEE7FEE7D6
:10030000FEE7FEE704480549054A064B7047000032
:10031000F91B000889010008604B00206051002093
:10032000604D0020604D002053EA020C00F069800F
:100330002DE9F04B4FF00006002B1FBFB3FA83F5F9
:1003400003FA05F424FA05F65E4012BF1643B2FA2A
:1003500082F502FA05F4C5F120051EBF22FA05FC5C
:1003600044EA0C04203556EA044C4FEA144418BF02
:10037000641C4FF000084FF00009904271EB030C31
:1003800039D3002919BFB1FA81F701FA07F6B0FA9B
:1003900080F700FA07F6C7F120071EBF20FA07FC16
:1003A00046EA0C062037B6FBF4FCA7EB0507103F26
:1003B00007F01F0BCBF120060CFA0BFB2CFA06F60C
:1003C00044BFB3460026202FA4BF5E464FF0000B6B
:1003D0005BEA060C08BF4FF0010B19EB0B09ABFBF6
:1003E000027C48EB0608C01B06FB02CC0BFB03CCCF
:1003F00071EB0C01C1E70B46024641464846BDE899
:10040000F08B13B54FF000004FF00001AFF3008008
:10041000BDE81C407047032A40F2308010F0030C06
:1004200000F0158011F8013BBCF1020F624498BF47
:1004300011F801CB00F8013B38BF11F8013BA2F1E4
:10044000040298BF00F801CB38BF00F8013B11F05F
:10045000030300F02580083AC0F0088051F8043BFF
:10046000083A51F804CBA0E80810F5E7121D5CBF6C
:1004700051F8043B40F8043BAFF30080D20724BF9F
:1004800011F8013B11F801CB48BF11F8012B24BF33
:1004900000F8013B00F801CB48BF00F8012B704782
:1004A00010B5203AC0F00B80B1E81850203AA0E80F
:1004B0001850B1E81850A0E81850BFF4F5AF5FEA43
:1004C000027C24BFB1E81850A0E8185044BF18C9F6
:1004D00018C0BDE810405FEA827C24BF51F8043B9D
:1004E00040F8043B08BF7047D20728BF31F8023BF1
:1004F00048BF11F8012B28BF20F8023B48BF00F885
:10050000012B704702F0FF0343EA032242EA024252
:1005100000F02CB84FF0000200B513469446964602
:10052000203922BFA0E80C50A0E80C50B1F1200106
:10053000BFF4F7AF090728BFA0E80C5048BF0CC0B4
:100540005DF804EB890028BF40F8042B08BF704712
:1005500048BF20F8022B11F0804F18BF00F8012B84
:1005600070477047704770474FF000020429C0F091
:10057000128010F0030C3FF4CFAFCCF1040CBCF1AF
:10058000020F18BF00F8012BA8BF20F8022BA1EB27
:100590000C01FFF7C1BF5FEAC17C24BF00F8012B4B
:1005A00000F8012B48BF00F8012B7047754600F09A
:1005B0002BF8AE4605006946534620F007008546F5
:1005C00018B020B5FFF79EFEBDE820404FF00006B2
:1005D0004FF000074FF000084FF0000B21F007012B
:1005E000AC46ACE8C009ACE8C009ACE8C009ACE86E
:1005F000C0098D46704710B50446AFF30080204611
:10060000BDE81040FFF709BE00487047FC4A0020D3
:1006100001491820ABBEFEE7260002007047FEE746
:1006200070B501001A480BD001290BD0022915D052
:1006300003292BD101220221BDE8704000F097B9B7
:100640000022F8E701220221044600F090F964201C
:1006500000F076F8002202212046EDE7002405464E
:100660004FF4967601220221284600F080F9C82036
:1006700000F066F800220221284600F078F93046A2
:1006800000F05EF8641CE4B2032CEBD370BD0000F4
:100690000008024006280ED2DFE800F00D0305072F
:1006A000090B012070470220704703207047042087
:1006B00070470520704700207047704730B51749D4
:1006C000DFED170A174C91ED020A002230EE200AE6
:1006D00010EE103A81ED020AA34203DDB3EE090ADF
:1006E00081ED020A4B885B1F9BB24B80642B02D2C8
:1006F0004FF4C8734B809DB2134665F30F038D888A
:1007000010EE104A65F31F43CD88097865F30F0298
:1007100061F317420460C0E9013230BD00000020DF
:10072000CDCCCC3D0000104272B6044C04212046D2
:1007300000F015F9642000F003F8F7E7000C024020
:1007400070B5044600F018F90546601C02D0044854
:100750000078044400F010F9401BA042FAD370BDA9
:10076000280000202DE9F84FDFF8BCA10022012568
:1007700003264FF00F090AF1040BAAF1040E00BF83
:100780000B6805FA02F42340A34270D10F7907F0F9
:100790000307012F01D0022F16D187684FEA4208C4
:1007A00006FA08FC27EA0C07D1F80CC00CFA08FC82
:1007B0004CEA070CC0F808C04768A7430C79C4F39B
:1007C000001494403C4344600C79E443A4070AD0ED
:1007D000C4684FEA420C06FA0CF7BC438F6807FA6C
:1007E0000CF72743C7600C7904F00304022C12D1E4
:1007F000D40800EB840CDCF820405707FF0E09FA00
:1008000007F824EA0804D1F8108008FA07F848EA43
:100810000408CCF8208004684FEA420C06FA0CF772
:10082000BC430F7907F0030707FA0CF7274307606B
:100830004C6814F4403F70D03C4C276847F4804724
:100840002760246822F0030704F480440094384CA5
:1008500007EB040CDCF8084897074FEA177809FA09
:1008600008F7BC43334FB84202D1002724E054E0DC
:10087000314FB84201D101271EE0304FB84201D1BB
:10088000022719E02E4FB84201D1032714E02D4F63
:10089000B84201D104270FE02B4FB84201D1052700
:1008A0000AE02A4FB84201D1062705E0284FB84296
:1008B00001D1072700E0082707FA08F72743CCF8FB
:1008C0000878DAF800405746D1F804C09C435FEA44
:1008D000CC2C00D51C433C60DBF800405F46D1F8CF
:1008E00004C09C435FEA8C2C00D51C433C60DEF8BE
:1008F00000407746D1F804C09C435FEA8C3C00D5A9
:100900001C433C60084F083F3C68D1F804C09C433E
:100910005FEACC3C00D51C433C60521C102AFFF41B
:100920002FAFBDE8F88F0000083C0140443802407A
:100930000030014000000240000402400008024074
:10094000000C024000100240001402400018024057
:10095000001C02400069084000D001207047426935
:1009600021EA02030A4043EA0241816170470AB169
:10097000816170470904FBE7014880687047000007
:10098000280000200B4810B5016841F40071016097
:10099000016841F480610160016841F48071016087
:1009A000032000F099F80F2000F006F800F04AF854
:1009B000002010BD003C024030B505461C4887B001
:1009C0000024016841F001010160006806A900F0FF
:1009D0000100009001A800F02BF900F049F9154939
:1009E0004000B0FBF1F11548134A491E026040F285
:1009F000E732C0E90324C0E90114846100F07AFB06
:100A0000040012D10D4800F0B7FB04000DD11920ED
:100A100000F034F8102D07D200222946192000F0EA
:100A20003BF80748056000E0012407B0204630BDD0
:100A30004438024040420F0000000140E001002025
:100A40002C0000200C4882B0016841F48041016014
:100A5000006800F4804000900748001F016841F0E2
:100A6000805101600068002200F0805000900F214A
:100A7000901E02B000F010B844380240002809DB94
:100A800000F01F02012191404009800000F1E020A8
:100A9000C0F8001170470000F0B40E4B1B680C4604
:100AA000C3F30223C3F10705042D00D90425191D42
:100AB000072901D2002300E0DB1E012606FA05F11A
:100AC000491E214099409E40761E16403143F0BC9D
:100AD00001F00EBA0CED00E0064900F007020868CC
:100AE0004FF6FF03184040EA0220034A1043086013
:100AF000704700000CED00E00000FA052DE9F0471A
:100B00000E46050065D0DFF81481D8F80000F7B272
:100B100000F00700B04207D288F80070D8F8000053
:100B200000F00700B04254D128683D4C810712D52F
:100B3000400703D5206840F4E05020602878000783
:100B400003D5206840F4604020602068A96820F048
:100B5000F000084320602878C0072DD0304968682D
:100B60000839012812D0022813D0032811D00968AF
:100B7000890700292DDA216821F003010143216052
:100B8000FFF7FAFE814641F2883A0EE009688903D0
:100B9000EFE709688901ECE7FFF7EEFEA0EB09013A
:100BA000514502D90320BDE8F0872068696800F04C
:100BB0000C00B0EB810FEFD1D8F80010404601F0E7
:100BC0000701B14207D90770006800F00700B04282
:100BD00001D00120E7E72878400705D52068E968BB
:100BE00020F4E050084320602878000706D52068EC
:100BF000296920F4604040EAC100206000F048F814
:100C00002168084AC1F30311515CC84006490860D5
:100C100006480068FFF7D0FE0020C4E7003C024011
:100C200008380240D0390008340000202C00002091
:100C30000F2202600C4A136803F003034360136839
:100C400003F0F0038360136803F4E053C360126899
:100C50004FF4E05303EAD20202610448006800F056
:100C6000070008607047000008380240003C02405E
:100C70000448054900680968044AC1F34231515CDF
:100C8000C84070473400002008380240E0390008AE
:100C9000154810B5006810F00C02144813D0144920
:100CA000042A0FD0082A0ED10F4C241F2268236873
:100CB00002F03F025B0207D52068C0F38810A0FB5A
:100CC000010106E0084610BD2168C1F38811A1FBAF
:100CD00000010023FFF728FB2168C1F30141491CF3
:100CE0004900B0FBF1F010BD083802400024F400C8
:100CF00040787D012DE9F84F04006ED02078DFF8B0
:100D00004C93C007A9F104054AD009F10400016819
:100D1000C1F38101012908D00068C0F381000228D5
:100D20000AD1D9F80000400206D52868800337D5DB
:100D300060680028E1D033E06068B0F5803F10D0F3
:100D4000B0F5A02F286810D020F4803028602868E3
:100D500020F4802028606068A8B1FFF70DFE0646E9
:100D60000DE0286840F48030F4E740F480202860EB
:100D7000F7E700BFFFF700FE801B642873D82868E0
:100D80008003F7D50CE0FFF7F7FD064605E000BF4E
:100D9000FFF7F2FD801B6428F0D828688003F7D4A1
:100DA0002078DFF8AC8280074FF0000A3ED5A748D4
:100DB000001D016811F00C0F08D00068C0F381001D
:100DC00002280BD1D9F80000400207D42868800718
:100DD00016D5E068012800D112E033E1E068B8B12F
:100DE0000120C8F80000FFF7C7FD064605E000BF78
:100DF000FFF7C2FD801B0228C0D828688007F7D5FE
:100E00002868216920F0F80040EAC10028600DE060
:100E1000C8F800A0FFF7B0FD064604E0FFF7ACFD00
:100E2000801B02281FD828688007F7D42078000785
:100E300022D5864F87486169703771B10121016001
:100E4000FFF79AFD064604E0FFF796FD801B022897
:100E500009D838688007F7D50EE0C0F800A0FFF782
:100E60008BFD064605E082E0FFF786FD801B022829
:100E70007DD838688007F7D42078400768D5DFF838
:100E8000CCB100270BF13C0BDBF80000C0000BD409
:100E9000DBF8001041F08051CBF80010DBF80000C7
:100EA000012700F0805000906B4E3068C00510D4D0
:100EB000306840F480703060FFF75EFD009005E020
:100EC000FFF75AFD0099401A022850D83068C00533
:100ED000F6D55E4EA0686C3601280FD00528306824
:100EE00010D020F001003060306820F00400306045
:100EF000A068B8B1FFF740FD00900FE0306840F007
:100F00000100F4E740F004003060F7E7FFF734FD3C
:100F10000099411A41F28830814266D830688007D2
:100F2000F4D50EE0FFF728FD009007E0FFF724FD61
:100F30000099411A41F28830814256D830688007C2
:100F4000F4D42FB1DBF8001021F08051CBF8001061
:100F5000A069C8B33D49091D0968C1F3810102298F
:100F60004AD00228504607D0C8F8600000E03CE0B4
:100F7000FFF702FD04463BE04746C8F86000FFF774
:100F8000FBFC064605E000BFFFF7F6FC801B0228CD
:100F90002BD828688001F7D4D4E907010843A16A57
:100FA0002E4A490802EB0141626A41EA8211084374
:100FB00094F82C1040EA0161C9F80010012038664D
:100FC000FFF7DAFC044606E03EE000BFFFF7D4FC82
:100FD000001B022809D828688001F7D534E000BF3B
:100FE000FFF7CAFC001B022802D90320BDE8F88FD6
:100FF00028688001F4D427E00128F7D0D9F8000050
:10100000E26900F4800191421CD1226A00F03F01A4
:10101000914217D147F6C071626A0140B1EB821F5D
:1010200010D1A26A4FF0FF3300F4403103EB5202BB
:10103000B1EB024F06D194F82C1000F07060B0EBC9
:10104000016F01D00120D1E70020CFE70438024032
:1010500000004742800E4742007000400000FFFF42
:101060007047704770B590F83C20012A32D00124B7
:1010700080F83C40022280F83D2003685A689D6851
:1010800022F070060A6832435A60134B02689A4293
:1010900014D0B2F1804F11D0104B9A420ED0104BA9
:1010A0009A420BD00F4B9A4208D00F4B9A4205D070
:1010B0000E4B9A4202D00E4B9A4204D1496825F059
:1010C00080031943916080F83D40002180F83C1076
:1010D000084670BD022070BD0000014000040040C1
:1010E00000080040000C00400004014000400140A6
:1010F0000018004010B5040003D094F83D0010B172
:1011000007E0012010BD002084F83C00204600F0DC
:101110001FF8022084F83D00211D206800F07AFDB0
:10112000012084F8460084F83E0084F83F0084F8EB
:10113000400084F8410084F8420084F8430084F8B9
:10114000440084F8450084F83D00002010BD0000F4
:1011500008B500680649884208D10648016841F090
:1011600040010160006800F04000009008BD0000F0
:10117000001800404038024090F83D10012901D08D
:1011800001207047022180F83D100168CA6842F0D2
:101190000102CA6000681149884214D0B0F1804F42
:1011A00011D00F4988420ED00E4988420BD00E490B
:1011B000884208D00D49884205D00D49884202D0A6
:1011C0000C49884204D1816801F00701062903D047
:1011D000016841F0010101600020704700000140FA
:1011E0000004004000080040000C004000040140E2
:1011F000004001400018004070B5044690F83C00E3
:101200000025012817D0012684F83C60022084F8CC
:101210003D002068826822F0770222F47F428260DB
:101220000868502838D00DDC20284FD005DC90B35A
:10123000102811D14AE0022070BD302846D0402845
:101240000AD13BE060282FD070280DD0B0F5805F28
:1012500003D0B0F5005F12D0012584F83D60002076
:1012600084F83C00284670BDCB68D1E90121206894
:1012700000F045FD2068816841F0770109E0CB6806
:10128000D1E90121206800F03AFD2068816841F42D
:1012900080418160E1E719E0CA684968206800F090
:1012A00003FE5021206806E0CA684968206800F003
:1012B0000CFE6021206800F02CFDCEE7CA6849686A
:1012C000206800F0F1FD40212068F4E72268014623
:1012D0001046F0E770472DE9F04104460068C66803
:1012E00005694FF00007A90713D5B10711D5F91EFD
:1012F000016101202077206880698007204602D0A4
:10130000FFF7E8FF04E000F0A9F8204600F03BF901
:101310002777680716D5700714D521686FF0040089
:101320000861022020772068806910F4407F204601
:1013300002D0FFF7CFFF04E000F090F8204600F065
:1013400022F92777280715D5300713D521686FF0C4
:1013500008000861042020772068C06980072046C3
:1013600002D0FFF7B7FF04E000F078F8204600F065
:101370000AF92777E80616D5F00614D521686FF02C
:1013800010000861082020772068C06910F4407FB1
:10139000204602D0FFF79EFF04E000F05FF82046F1
:1013A00000F0F1F82777E80708D0F00706D02168A9
:1013B0006FF001000861204600F04AF9280608D5C0
:1013C000300606D521686FF0800008612046FFF7DF
:1013D00047FE680608D5700606D521686FF0400004
:1013E0000861204600F035F9A8060AD5B00608D5F0
:1013F00021686FF0200008612046BDE8F041FFF74A
:1014000030BEBDE8F081000010B586B0044614215E
:101410006846FFF77FF80E492068884216D10D48CC
:101420000021026842F002020260006800F002003F
:1014300005904FF4804000900220CDE90101092081
:10144000CDE9031069460448FFF78CF906B010BDDA
:10145000001800403038024000040240704770B568
:10146000044690F83C0000260D4601280FD00120CC
:1014700084F83C006AB1042A1DD0082A2FD00C2A17
:101480003FD00126002084F83C00304670BD022089
:1014900070BD206800F046FC2068816941F00801B9
:1014A00081612068816921F004018161206881697E
:1014B0002A69114311E0206800F064FC206881690A
:1014C00041F4006181612068816921F4806181615A
:1014D000206881692A6941EA02218161D2E7206896
:1014E00000F086FC2068C16941F00801C1612068F4
:1014F000C16921F00401C1612068C1692A691143F1
:1015000011E0206800F0A8FC2068C16941F4006186
:10151000C1612068C16921F48061C1612068C1692D
:101520002A6941EA0221C161ACE710B5040003D089
:1015300094F83D0010B107E0012010BD002084F8B0
:101540003C00204600F01EF8022084F83D00211DDA
:10155000206800F05FFB012084F8460084F83E001C
:1015600084F83F0084F8400084F8410084F8420089
:1015700084F8430084F8440084F8450084F83D0072
:10158000002010BD7047704710B50446022249B1D3
:1015900004290ED0082913D094F84100012816D050
:1015A000012010BD94F83E000128F9D184F83E20B6
:1015B0000FE094F83F000128F2D184F83F2008E0C2
:1015C00094F840000128EBD184F8402001E084F831
:1015D00041200122206800F085FB16492068164A48
:1015E000884201D0904203D1436C43F400434364EA
:1015F0002068884213D0B0F1804F10D00F49884244
:101600000DD00F4988420AD00E49884207D0904237
:1016100005D00D49884202D00C49884204D1816826
:1016200001F00701062903D0016841F001010160C2
:10163000002010BD000001400004014000040040F3
:1016400000080040000C004000400140001800402D
:1016500070477047FEE7000070B5234C20B10128A9
:1016600009D0022816D121E0012211462046FFF7B9
:101670007EF9002205E0002201212046FFF777F9DC
:10168000012202212046FFF772F9002204212046A0
:10169000FFF76DF91548C078A0B1022814D00022D8
:1016A0002046BDE870400821FFF761B90022012102
:1016B0002046FFF75CF9002202212046FFF757F988
:1016C0000122E3E70122EBE7FFF756F9084DE9684D
:1016D000401AB0F5FA7F06D908212046FFF73FF9F6
:1016E000FFF74AF9E86070BD000C0240B800002026
:1016F00000000020A4B000F02DFC224A0C21102094
:1017000000F088FC204C1F4A012120611832102073
:1017100000F080FC1B496061242230316846FEF7EE
:10172000BFFE6A460021194800F0D4FC1549E0616B
:101730002422543109A8FEF7B3FE09AA0021144857
:1017400000F0C8FC0F4920622422783112A8FEF76D
:10175000A7FE12AA00210F4800F0BCFC09496062F4
:1017600024229C311BA8FEF79BFE1BAA00210A48DD
:1017700000F0B0FCA06100F0FFFB012000F0DCFBFA
:10178000FBE7000010390008000000206119000884
:1017900015190008411B0008E51A0008F0B587B0CC
:1017A00014216846FEF7B6FE1D480024016841F08A
:1017B00004010160016801F004010591016841F034
:1017C00008010160016801F008010591016841F01C
:1017D000020101600068134E00F002000590002233
:1017E00003213046FFF7C3F80F4F00220F21384680
:1017F000FFF7BDF8032000900125CDE901546946AB
:1018000030460394FEF7AEFF0F200090CDE901545F
:10181000694638460394FEF7A5FF07B0F0BD000007
:101820003038024000080240000C024010B58EB073
:1018300000240794089409940A940B941C21684688
:101840000C94FEF767FE1F481D490160A721C0E9FF
:10185000011440F2E731C0E9031480218161FFF7F0
:1018600049FC08B1FEF760FF4FF48050079007A9CC
:101870001448FFF7C1FC08B1FEF756FF1148FFF707
:1018800054FE08B1FEF750FF0B940BA90D480C94C1
:10189000FFF7E8FB08B1FEF747FF6020CDE9000441
:1018A00002940022694607480494FFF7D8FD08B166
:1018B000FEF73AFF0348FFF7A7FD0EB010BD00008A
:1018C0000018004098010020FEE70000642800D9BD
:1018D0006420044A00EB8001490012685163024908
:1018E0000870704798010020B8000020FEE7000053
:1018F00010B5040001D0012200E0002201210348BC
:10190000FFF735F80248447010BD0000000802409F
:10191000B800002008B500200F4C104D8DF80000D5
:1019200020212046FFF716F8012806D04021204646
:10193000FFF710F801280AD10220FEF7ABFE8DF860
:1019400000000A2300226946686900F08FFB3220FC
:1019500000F0F2FAE4E7000000000240000000207E
:101960001FB500240194029403948DF8004025468D
:101970002046FFF7ABFF0020FFF7BAFF0020FEF77D
:101980004FFE2046FFF768FE504F514E4FF0FF3993
:101990004FF448784B46002201A9386900F008FB53
:1019A0000028F7D10A2300226946786900F000FB7D
:1019B00000BB9DF800000C2825D2DFE800F02406CB
:1019C000080B0E101416181C2029F47022E00120B8
:1019D000F07073E00220F0705AE0012000E0002077
:1019E000FFF786FF0FE01E2002E03C2000E06420AD
:1019F000FFF76CFF07E00020FEF712FE03E0346003
:101A00007460B460F460F07820B1022840D055E0F2
:101A10000025F0E7BDF80C00404507D82D49019896
:101A2000884203DCBDF80A10414508D9022564202C
:101A3000FFF74CFF0120FFF75BFF032025E0264A5C
:101A400090420CDCB1F5FA7F09D89DF80E100129FF
:101A500005D02249002588420ADD1E2009E0012523
:101A60003C20FFF733FF0120FFF742FF02200CE08C
:101A70000020FFF72BFFBDF80800C82801D2012085
:101A800000E00020FFF734FF0020FEF7C9FD15E05D
:101A900013490198884201DD142000E00020FFF77F
:101AA00015FFBDF80800962801D2012000E00020B3
:101AB000FFF71EFF0020FEF7B3FD0025B570284696
:101AC000FFF7CAFD642000F037FA63E7000000204A
:101AD000B800002000000C420000F0410000C841A6
:101AE0000000E04186B00020134D144C009001909E
:101AF000461E029003A8FEF7E1FD03AB93E8070042
:101B00008DE80700334600226946286900F0AEFAE6
:101B10009DED000A84ED010ABDF804002081BDF8A6
:101B200006006081BDF80800A0819DF80A00A0733E
:101B3000C82000F001FADDE700000020B800002016
:101B40004FF4FA74204600F0F7F9FBE710B54FF0B8
:101B5000E020006901F020FD012803D0BDE810401D
:101B600001F0E0B910BD000030B593B030216846F7
:101B7000FEF7D0FC14210CA8FEF7CCFC1C48002575
:101B8000016841F080510160006800F080501190C0
:101B90001848016841F4804101600068022400F4A3
:101BA0008040119001200090000401908001CDE957
:101BB0000640082008904FF4A870CDE909040720DA
:101BC0000B906846FFF796F870B90CA90F2081E8D2
:101BD00031004FF4A0500F90E002109005210CA8A6
:101BE000FEF78CFF002801D0FEF79EFD13B030BD3C
:101BF00040380240007000400248016841F4700122
:101C00000160704788ED00E00148FFF764BB000009
:101C100098010020F0B50268274B284D284E294F27
:101C2000294C4FF0804C984209D0604507D0A8421B
:101C300005D0B04203D0B84201D0A04204D122F076
:101C4000700E4A6842EA0E0298421BD0604519D0D5
:101C5000A84217D0B04215D0B84213D0A04211D03C
:101C60001A4DA8420ED01A4DA8420BD0194DA842C9
:101C700008D0194DA84205D0184DA84202D0184DE1
:101C8000A84203D122F44075CA682A434D6922F064
:101C900080022A438D68C5620D688562984201D032
:101CA000A04201D109690163016841F004010160AA
:101CB000012141610260F0BD0000014000040040CC
:101CC00000080040000C00400004014000400140BA
:101CD000004401400048014000180040001C004042
:101CE0000020004010B501F01F030121046A994053
:101CF0008C430462016A9A401143016210BD10B521
:101D0000846842EA032224F47F440A432243826027
:101D100010BD826822F070020A4342F00701816020
:101D200070470000F0B5036A026A22F00102026205
:101D300042688469124E24F073050C682C4323F02A
:101D400002058B682B430D4DA84201D0B04205D14E
:101D500023F00807CB683B4323F00403A84201D0DB
:101D6000B04205D14D6922F4407215438A692A4375
:101D700042608461496841630362F0BD0000014034
:101D800000040140F0B5026A036A23F01003036205
:101D9000436884690D6824F4E64444EA05248D68A8
:101DA00022F0200242EA05120F4D104EA84201D047
:101DB000B04206D1CF6822F0800242EA071222F038
:101DC0004002A84201D0B04207D14D6923F44063DC
:101DD00043EA85038D6943EA85034360846149686A
:101DE00081630262F0BD0000000001400004014078
:101DF000F0B5026A036A23F4807303624368C4691E
:101E000022F4007224F073050C68124E2C438D6886
:101E100042EA05220E4DA84201D0B04206D1CF6859
:101E200022F4006242EA072222F48062A84201D032
:101E3000B04207D14D6923F4405343EA05138D693D
:101E400043EA05134360C4614968C1630262F0BD9F
:101E5000000001400004014030B5046A026A22F427
:101E6000805202624268C3690D6823F4E64343EA84
:101E700005238D6824F4005444EA0534084DA84233
:101E800002D0084DA84204D14D6922F4804242EAB2
:101E900085124260C36149680164046230BD00007C
:101EA000000001400004014010B5036A046A24F0F8
:101EB00001040462846924F0F00444EA021423F06B
:101EC0000A020A438461026210BD10B5036A046A03
:101ED00024F010040462846923F0A00324F4704405
:101EE00044EA023243EA01118261016210BDFEE759
:101EF0000907090E002804DB00F1E02080F8001437
:101F0000704700F00F0000F1E02080F8141D7047CA
:101F1000FEF738FDFFF728FEFFF740FCFFF786FCD1
:101F200000210448FFF730FBFFF7E4FB012000F03D
:101F300003F8FBE79801002010B5EFF3058111B11C
:101F40006FF0050403E0002408B100F08BFE20468A
:101F500010BD0000EFF3058010B16FF00500704771
:101F60000448016811B14FF0FF3070470121016052
:101F7000002070478800002010B5EFF3058010B1F5
:101F80006FF0050010BD08480168012902D04FF02C
:101F9000FF3010BD054A002182F8141D02210160A6
:101FA00000F0C8FE002010BD880000200BE000E01B
:101FB000F8B51D466FF003026FF002064FF0000403
:101FC000EFF30583A3B1F0B1E9B1E5B900220092C6
:101FD0006A4601F001FA012817D10098B0B10C4906
:101FE0004FF080500860BFF34F8FBFF36F8F0DE04D
:101FF00048B141B12A4601F053F9012806D025B174
:102000006FF0010402E0144600E034462046F8BDBB
:1020100004ED00E0F8B514464FF00005EFF305823B
:1020200012BB08B301B3A4B1D4E9023263B1502AA0
:102030001AD32269C2B1676900FB01F6B74213D314
:10204000009500F0A6FF07E072B9226962B96269E3
:1020500052B9002200F07CFF050005D00CB12168C8
:1020600000E0002100F0C8FD2846F8BDF8B51D4687
:102070006FF003026FF002064FF00004EFF30583E8
:10208000ABB100B3F9B1F5B90022134600926A462C
:1020900001F0A6F8012818D10098B8B10C494FF00A
:1020A00080500860BFF34F8FBFF36F8F0EE050B1C9
:1020B00049B100232A4600F0E3FF012806D025B1EC
:1020C0006FF0010402E0144600E034462046F8BDFB
:1020D00004ED00E02DE9FF414FEA01034FF0000558
:1020E000EFF30581039549BB40B3802718210024F5
:1020F0004AB3166806B1344696691EB13146761E5B
:10210000382E02D21679F60703D0002004B0BDE8BD
:10211000F081566906B1B708D2F808C0BCF1000FCB
:102120000DD0D5685C2D18D312693AB136B18DE85F
:1021300006103A46214601F004FA03900DE0D668F5
:102140005EB912694AB903AACDE90012BAB22146B2
:1021500001F0CAF9012800D003950398D6E70000E2
:102160002DE9F041134C0F460546E6682068001D36
:1021700000F044FC681C07D137B12168BDE8F0418C
:102180000D48091D00F08ABC20683544B542456001
:10219000216805D2A06BBDE8F041091D00F066BCC6
:1021A000606B091D00F062FCA06A854200D2A56246
:1021B000BDE8F08138000020180700202DE9F0412B
:1021C000054600F077FC2D4CA068401CA0602068FC
:1021D0002B4F10B1606930B32BE02560A068012857
:1021E00027D1002606EB860007EB800000F030FCCC
:1021F000761C382EF6D3234800F02AFC21481430F0
:1022000000F026FC1F48283000F022FC1D483C301E
:1022100000F01EFC1B48503000F01AFC19486063A7
:102220001430A06305E02068E96AC06A884200D8DB
:102230002560606A401C60626864E86A21698842BF
:1022400000D9206100EB800007EB8000291D00F021
:1022500025FC00F04FFC606900280CD02068E96A7A
:10226000C06A884207D208494FF080500860BFF327
:102270004F8FBFF36F8FBDE8F08100003800002062
:1022800068020020C806002004ED00E038B500F028
:1022900011FC104C2068C8B90F4800F0D9FB0E485B
:1022A000143000F0D5FB0C48E060143020610A4B7C
:1022B0000020F03B009003F1500210210A2000F0B2
:1022C00068FE206010B105A100F096FCBDE8384022
:1022D00000F010BC740000201C080020546D7251E6
:1022E0000000000030B4026C0B46002A0BD0C1681D
:1022F0001144C1608468A14201D30168C16030BC4F
:102300001846FEF788B830BC70472DE9F041856B60
:10231000174604460026026C82B1C7B1E068FEF79A
:102320007AF8E168206C091AE1602268914202D2D1
:10233000A168081AE060022F16D017E02068A8B93B
:10234000A06801F0A1F906460020A0600EE06068D8
:10235000FEF761F8216C606808446060A1688842FB
:1023600004D32068606001E005B16D1E6D1CA5639B
:102370003046BDE8F08110B5044690F8590058B1D8
:1023800001280CD002280FD0502080F31188BFF311
:102390004F8FBFF36F8FFEE7206B00F0BFFB20462F
:1023A000BDE8104000F0BABB10BD000010484FF46B
:1023B0007051420706D0C01D0D4920F00700411A98
:1023C000C1F570510B4A00230144C2E900030839EA
:1023D000183A21F0070111604B600B600B1AC0E93D
:1023E000001393604FF0004053605061704700004D
:1023F000FC0E0020A4000020144E154CA6F29C47B1
:102400004FF08058DFF84C9012E000BF00F052FB14
:10241000F068C568281D00F0F1FAA068401EA060B1
:102420006068401E606000F065FB2846FFF7A3FF70
:1024300060680028EAD138680128F9D9C9F8008015
:10244000BFF34F8FBFF36F8FF2E700000407002048
:102450003800002004ED00E070B51D46049C51B129
:10246000C4F80020C4E90F010121204600F0C4FD9A
:1024700084F84C5070BD2460F4E700002DE9F05F53
:102480008846DDE90B941546834691009A460A9EDC
:10249000A522206BFEF736F86FF00301206B01EBED
:1024A0008501084420F00707780707D0502080F303
:1024B0001188BFF34F8FBFF36F8FFEE70025B8F190
:1024C000000F0FD05FF00000221818F8001082F8FB
:1024D000341018F8001011B1401C1028F4D384F8FF
:1024E000435001E084F83450382E00D33726E6629A
:1024F000C4E91365201D00F0B6FA04F1180000F0DD
:10250000B2FA2461C6F138006462A061656584F89E
:10251000585052465946384600F05AFA2060B9F1F0
:10252000000F01D0C9F80040BDE8F09F30B5114957
:1025300000E011460A688242FBD34B685C18844273
:1025400003D1406818444860084643681C18944208
:1025500009D1084C183C2468A24209D052681A4498
:1025600042600A6812680260814200D0086030BD93
:102570000460F9E7A400002070B5002441600B4D11
:102580000061914206D8D11A8269914206D2011D9A
:10259000286907E09A4203D2994201D3012403E05B
:1025A000011DE86800F062FA204670BD740000204A
:1025B00010B5044600F07EFAA06B28B15FF000046D
:1025C00000F098FA204610BD0124F9E730B589B033
:1025D0003C4D6EE00498002806DADDE90601059A14
:1025E00090470498002864DB069C606910B1201DA8
:1025F00000F004FA03A800F0D7F8024604980A286D
:1026000057D2DFE800F00505052D334A05052D33C7
:1026100094F8280040F0010084F828000599A0698A
:10262000059B01442046FFF7A7FF68B3216A2046B7
:10263000884794F8280040073BD500200090059873
:10264000A169002342181946204601F027F9D8B99C
:10265000502080F31188BFF34F8FBFF36F8FFEE7D9
:1026600014F8280F20F00100207022E094F82800D0
:1026700040F0010084F828000598A06128B1811875
:1026800013462046FFF778FF13E0502080F31188AF
:10269000BFF34F8FBFF36F8FFEE794F828008107D9
:1026A00003D4204600F03AFA03E020F0010084F859
:1026B0002800002204A9286800F0F2FD002889D132
:1026C00009B030BD740000202DE9FC410F460546DD
:1026D00000F074FB01A800F067F80446019818B1F7
:1026E00001F04AF8BDE8FC81254EAFB130690068C1
:1026F000D0B30027291B3A46306800F091FA01F068
:102700003BF80028EED11F494FF080500860BFF31E
:102710004F8FBFF36F8FE5E7A542EBD801F02CF8A0
:10272000F0682746C068C468201D00F067F994F877
:102730002800410719D5A0692B4641193A46204681
:10274000FFF71AFFA8B100200346014600902A4671
:10275000204601F0A3F860B9502080F31188BFF340
:102760004F8FBFF36F8FFEE707E020F0010084F882
:102770002800216A20468847B4E70127BAE700000D
:102780007400002004ED00E00648416B096829B19F
:10279000416BC968C9684968816270474FF0FF3171
:1027A000FAE700003800002070B5054600F002FF8F
:1027B000064E0446B068844203D200F009F80120B6
:1027C00000E0002028602046B46070BD7400002046
:1027D000F8B5194D20E0C068C4680668201D00F0F7
:1027E0000DF9216A2046884794F82800400713D540
:1027F000A0693044B04206D924616060211DE868B8
:1028000000F034F908E0002003460146009032460B
:10281000204601F043F838B1E86801680029DAD1B0
:102820002969C5E90310F8BD502080F31188BFF372
:102830004F8FBFF36F8FFEE7740000200848406899
:10284000401C4FF0500080F3118804D0BFF34F8F2D
:10285000BFF36F8FFEE7BFF34F8FBFF36F8FFEE7BE
:10286000AC000020074CE068016841B1C06800215D
:10287000D0F80000FFF728FFFFF7A8FEF3E70121DB
:102880000020F7E7740000202DE9F041044600F035
:1028900011F994F9455004F1240609E0606A48B141
:1028A000304600F031FF08B100F00AFA6D1E6DB23B
:1028B000002DF3DC4FF0FF3684F8456000F01AF984
:1028C00000F0F8F894F9445004F1100709E0206989
:1028D00048B1384600F018FF08B100F0F1F96D1E5C
:1028E0006DB2002DF3DC84F84460BDE8F04100F0E7
:1028F00001B900002DE9F0410546002700F05EFA1D
:10290000324E306808B9FFF751FD706905424ED16B
:10291000C5B3083568070ED005F00700C0F1080000
:102920000544680707D0502080F31188BFF34F8F0C
:10293000BFF36F8FFEE72DB37068854237D8234809
:10294000183001460C6801E020460C466168A94237
:1029500002D221680029F7D131688C4227D007685C
:102960002168016060680837411B10290FD9601980
:10297000420708D0502080F31188BFF34F8FBFF378
:102980006F8FFEE713E041606560FFF7CFFD616880
:102990007068401A7060B268904200D2B06070698E
:1029A00001430020C4E90001F068401CF06000F021
:1029B000E3FE780707D0502080F31188BFF34F8FD4
:1029C000BFF36F8FFEE73846BDE8F0818C00002032
:1029D00010B5031F4FF080741C601B1F21F0010114
:1029E0001960191F044B0B6014390A60091F6FF03E
:1029F000020244380A6010BD3D280008D0E90132C7
:102A000001699A60D0E901235A604A68824201D183
:102A100082684A60002202610868401E08600868F7
:102A200070470000034B036003F15C0008608020E6
:102A30001060704744080020044B036003F15C0001
:102A400008604FF48070106070470000A00A0020FA
:102A500000F108014FF0FF32C0E90112C1600161CD
:102A600000210160704700210161704730B50B689B
:102A70005A1C02D000F1080202E0026904E022467A
:102A8000546825689D42FAD953684B6099608A6002
:102A9000516008610168491C016030BD42684A60AC
:102AA00093688B6093685960916008610168491C64
:102AB00001607047502080F31188BFF34F8FBFF340
:102AC0006F8F0A494868401C486001280CD10848AB
:102AD000006810F0FF0F07D0502080F31188BFF37B
:102AE0004F8FBFF36F8FFEE770470000AC000020F0
:102AF00004ED00E00849486828B1401E486001D153
:102B000080F311887047502080F31188BFF34F8FF6
:102B1000BFF36F8FFEE70000AC00002070B5002807
:102B20002AD0164DA0F1080460686969084207D1EF
:102B3000502080F31188BFF34F8FBFF36F8FFEE7F4
:102B400022683AB1502080F31188BFF34F8FBFF352
:102B50006F8FFEE78843606000F030F96068696855
:102B6000084468602046FFF7E1FC2869401C2861A2
:102B7000BDE8704000F000BE70BD00008C00002079
:102B80004FF0E02000210161816105494FF47A7224
:102B90000968B1FBF2F1491E4161072101617047EB
:102BA0003400002010B5FDF79BFB114910280ED30F
:102BB00000F1E02090F8F0030A78904207D250200C
:102BC00080F31188BFF34F8FBFF36F8FFEE7094883
:102BD0000068896800F4E060884207D9502080F3DB
:102BE0001188BFF34F8FBFF36F8FFEE710BD00005A
:102BF000AC0000200CED00E010B5084B002200BF37
:102C000053F832401CB1521C082AF9D310BD43F8C6
:102C1000321003EBC201486010BD00002802002002
:102C200070B515460E460446FFF744FF94F944106C
:102C30000020491C01D184F8440094F94510491C36
:102C400001D184F84500FFF755FFA06B28B92A464B
:102C5000314604F1240000F051F82046BDE87040F0
:102C6000FFF712BE10B5020014D00F48006B38B148
:102C7000502080F31188BFF34F8FBFF36F8FFEE7B3
:102C800000F09CF800211046FFF76AFA00F074FD8E
:102C9000002807D105494FF080500860BFF34F8FDF
:102CA000BFF36F8F10BD00003800002004ED00E07E
:102CB00002490A6A0260C968416070473800002012
:102CC00001490120C86170473800002010B50C464A
:102CD00050B1094909681831FFF7C8FE2046BDE820
:102CE00010400121FFF73CBA502080F31188BFF358
:102CF0004F8FBFF36F8FFEE73800002070B514468A
:102D00000D4668B10A4909681831FFF7C7FE0CB1D2
:102D10004FF0FF3521462846BDE87040FFF720BA46
:102D2000502080F31188BFF34F8FBFF36F8FFEE702
:102D30003800002030B587B00024039405AA04A908
:102D400003A80494FFF76EFEDDE903010094CDE9CA
:102D50000110002315A11748059A00F0F2FB164D4B
:102D60000028E8621FD000F069FD012809D0401C4E
:102D700019D1502080F31188BFF34F8FBFF36F8FAD
:102D8000FEE7502080F31188BFF34F8FBFF36F8FA2
:102D90004FF0FF30A86201206861EC6007B0BDE829
:102DA000304000F045B807B030BD000049444C4504
:102DB00000000000F9230008380000200248016BE1
:102DC000491C01637047000038000020164810B508
:102DD000016B11B10121C16110BD0021C161016907
:102DE000124A01E0B9B1491E01EB810352F82330C8
:102DF000002BF7D001EB810302EB830202F1080400
:102E000053685B685360A34201D15B685360DA6822
:102E10000260016110BD502080F31188BFF34F8F15
:102E2000BFF36F8FFEE7000038000020680200202B
:102E30001CB537480168374A914207D1502080F3CA
:102E40001188BFF34F8FBFF36F8FFEE700683149E2
:102E5000491E884207D1502080F31188BFF34F8F5D
:102E6000BFF36F8FFEE72C4908780190FF200870B0
:102E700008788DF800009DF800009DF8002000F013
:102E8000F000904207D0502080F31188BFF34F8F9D
:102E9000BFF36F8FFEE79DF80000204C00F050005C
:102EA00020700720A06005E09DF8002052008DF8FA
:102EB0000020401E9DF800201206F5D4A0600328D3
:102EC00007D0502080F31188BFF34F8FBFF36F8F6F
:102ED000FEE74FF44070A060019808700C48203065
:102EE000016841F470010160016841F070410160C6
:102EF000FFF746FE00206060FDF7BAF90848016858
:102F000041F040410160FDF79FF900201CBD000029
:102F100000ED00E071C20F4100E400E0AC000020D1
:102F200034EF00E010B5502080F31188BFF34F8FCD
:102F3000BFF36F8F00F044FB18B104494FF080508D
:102F40000860002080F3118810BD000004ED00E04F
:102F5000F8B517460E46050013D005FB06F05030B5
:102F6000FFF7C8FC04000AD0002084F8460004F1F2
:102F700050023B46314628460094FFF76DFA204642
:102F8000F8BD502080F31188BFF34F8FBFF36F8FD0
:102F9000FEE738B5049D18B153B1CAB181B120E044
:102FA000502080F31188BFF34F8FBFF36F8FFEE780
:102FB000502080F31188BFF34F8FBFF36F8FFEE770
:102FC000502080F31188BFF34F8FBFF36F8FFEE760
:102FD00039B1502080F31188BFF34F8FBFF36F8F4B
:102FE000FEE750241C46012384F846302B4600940B
:102FF000FFF732FA204638BD70B50D46040025D0E3
:10300000FFF758FDD4E90F20216802FB0011A160F1
:103010000021A163216861600A46D4E90F01401EC6
:1030200000FB0121E16021464FF0FF3001F8440F21
:10303000487004F110008DB1FFF70AFD04F124007F
:10304000FFF706FDFFF756FD012070BD502080F30D
:103050001188BFF34F8FBFF36F8FFEE721690029FF
:10306000F0D000F051FB0028ECD004494FF0805024
:103070000860BFF34F8FBFF36F8FE3E704ED00E00D
:103080002DE9FF4782B01D468A464FF00008040034
:1030900003D0BAF1000F08D011E0502080F311885E
:1030A000BFF34F8FBFF36F8FFEE7206C38B1502016
:1030B00080F31188BFF34F8FBFF36F8FFEE7022DB0
:1030C0000AD1E06B012807D0502080F31188BFF3AC
:1030D0004F8FBFF36F8FFEE700F05EFA3F4F4FF068
:1030E00000094FF0805648B9049838B1502080F359
:1030F0001188BFF34F8FBFF36F8FFEE7FFF7DAFC46
:10310000A06BE16B884207D3022D05D00498D0B1A3
:10311000B8F1000F1AD01EE02A4651462046FFF7AC
:10312000F4F8616A19B104F1240000F0EDFA20B15D
:103130003E60BFF34F8FBFF36F8FFFF7DBFC0120C3
:1031400006B0BDE8F087FFF7D5FC22E06846FFF740
:10315000AFFD4FF00108FFF7CDFCFFF72FFEFFF7A3
:10316000A9FC94F94400401C01D184F8449094F9DE
:103170004500401C01D184F84590FFF7BBFC04A931
:10318000684600F077F930B12046FFF77DFB00F08C
:10319000F3FA0020D4E7FFF78DFCA06BE16B8842C7
:1031A00013D1FFF7A7FC04F110000499FFF78EFD7F
:1031B0002046FFF769FB00F0DFFA00289ED13E6051
:1031C000BFF34F8FBFF36F8F98E7FFF793FC204655
:1031D000FFF75AFB00F0D0FA90E7000004ED00E0A2
:1031E0002DE9F0471F4690468946040003D0B9F107
:1031F000000F08D011E0502080F31188BFF34F8FEB
:10320000BFF36F8FFEE7206C38B1502080F3118838
:10321000BFF34F8FBFF36F8FFEE7022F0AD1E06B32
:10322000012807D0502080F31188BFF34F8FBFF3E0
:103230006F8FFEE7FFF7B6FC5020EFF3118680F3A7
:103240001188BFF34F8FBFF36F8FA06BE16B884284
:1032500006D3022F04D0002086F31188BDE8F08742
:1032600094F94550A06B3A4649462046FFF74DF881
:10327000681C04D06D1C84F845500120ECE7606A9E
:103280000028FAD004F1240000F03EFA0028F4D01F
:10329000B8F1000FF1D00121C8F80010EDE70000EF
:1032A0002DE9F747002683B08A46040003D0BAF11F
:1032B000000F08D011E0502080F31188BFF34F8F2A
:1032C000BFF36F8FFEE7206C38B1502080F3118878
:1032D000BFF34F8FBFF36F8FFEE700F05DF9DFF8AC
:1032E000F4804FF000094FF0805748B9059838B185
:1032F000502080F31188BFF34F8FBFF36F8FFEE72D
:10330000FFF7D8FBA56BC5B151462046FEF7EAFF93
:103310006D1EA563206950B104F1100000F0F4F9AE
:1033200028B1C8F80070BFF34F8FBFF36F8FFFF75E
:10333000E1FB012006B0BDE8F087059808B11EB199
:1033400006E0FFF7D7FB27E06846FFF7B1FC012650
:10335000FFF7D0FBFFF732FDFFF7ACFB94F9440019
:10336000401C01D184F8449094F94500401C01D1DF
:1033700084F84590FFF7BEFB05A9684600F07AF88F
:10338000002820460AD0FFF77FFA00F0F5F9204622
:10339000FFF70EF90028B3D00020CBE7FFF708F9BC
:1033A00090B104F124000599FFF790FC2046FFF747
:1033B0006BFA00F0E1F90028A2D1C8F80070BFF361
:1033C0004F8FBFF36F8F9BE72046FFF75DFA00F04A
:1033D000D3F995E704ED00E02DE9F04790468946E2
:1033E000040003D0B9F1000F08D011E0502080F3A1
:1033F0001188BFF34F8FBFF36F8FFEE7206C38B19A
:10340000502080F31188BFF34F8FBFF36F8FFEE71B
:10341000FFF7C8FB5020EFF3118680F31188BFF34C
:103420004F8FBFF36F8FA76BF7B194F944504946A4
:103430002046FEF757FF7F1EA763681C04D06D1C53
:1034400084F84450012010E020690028FAD004F1EB
:10345000100000F059F90028F4D0B8F1000FF1D0B5
:103460000121C8F80010EDE7002086F31188BDE8BF
:10347000F08700002DE9F0410C46050011D0C4B1E1
:10348000FFF718FB174BDA686E682068911B471C22
:1034900017D02F681B6A9F4219D0964217D8012473
:1034A00010E0502080F31188BFF34F8FBFF36F8F70
:1034B000FEE7502080F31188BFF34F8FBFF36F8F6B
:1034C000FEE70024FFF716FB2046BDE8F0818842A6
:1034D00005D9401A20602846FFF7EAFBF1E70020F3
:1034E0002060DCE7380000202DE9FF5F8346DDE93E
:1034F0000E87994616468A469000FFF7FBF90500AD
:103500001CD05C20FFF7F6F9040014D000202563DE
:1035100084F85900CDE90240CDE900874B46324698
:1035200051465846FEF7AAFF2046FEF747FE012007
:1035300004B0BDE8F09F2846FFF7F0FA4FF0FF30E7
:10354000F6E7F0B585B0DDE90B640A9DA6B1DCB104
:103550005C2700972663022684F85960002604AF92
:10356000CDE90246CDE90057FEF788FF2046FEF779
:1035700025FE049805B0F0BD502080F31188BFF3FC
:103580004F8FBFF36F8FFEE7502080F31188BFF39A
:103590004F8FBFF36F8FFEE70548416919B1006B8C
:1035A00018B10020704701207047022070470000CA
:1035B000380000200148C068704700003800002033
:1035C0002DE9F0412E4C0027206B28B1A069401C4A
:1035D000A0613846BDE8F081E668761CE66013D14C
:1035E000606B006838B1502080F31188BFF34F8FB3
:1035F000BFF36F8FFEE7606BA16B6163A063206A0E
:10360000401C2062FFF7C0F8A06ADFF8788086428D
:1036100009D3606B0068A0B1606BC068C56868685A
:10362000864211D2A0622068C06A00EB800158F87F
:103630002100012800D90127E0690028C9D001270D
:10364000C7E74FF0FF30EDE7281DFFF7D7F9A86A6D
:1036500018B105F11800FFF7D1F9E86A216988422D
:1036600000D9206100EB800108EB8100291DFFF7E4
:1036700015FAE86A2168C96A8842CAD30127C8E7EF
:10368000380000206802002070B504004FF00001EF
:1036900033D01B4D2868844207D0502080F3118816
:1036A000BFF34F8FBFF36F8FFEE7206D38B1401E21
:1036B0002065E36CE26A9A421FD040B11DE05020C1
:1036C00080F31188BFF34F8FBFF36F8FFEE7201D8C
:1036D000FFF794F9E06CE062C0F13800A061E06AA5
:1036E0002969884200D92861064900EB800001EB76
:1036F0008000211DFFF7D2F90121084670BD0000AE
:10370000380000206802002070B5C068C46854B159
:1037100004F118000646FFF771F9144D286B50B1FB
:103720003146134815E0502080F31188BFF34F8FC6
:10373000BFF36F8FFEE7201DFFF760F9E06A29698C
:10374000884200D928610B4900EB800001EB800022
:10375000211DFFF7A3F9E06A2968C96A884202D9E6
:103760000120E86170BD002070BD0000380000201D
:10377000F0060020680200202DE9F0472C4D0024BF
:103780002746286B38B1FFF795F9286B401E286350
:10379000286B40B146E0502080F31188BFF34F8F73
:1037A000BFF36F8FFEE7A968224E0120D1B3A6F5C3
:1037B000916980463068E0B1F068C46804F118008F
:1037C000FFF71CF9201DFFF719F9E06A2969884203
:1037D00000D9286100EB800109EB8100211DFFF772
:1037E0005DF9E06A2968C96A8842E3D3C5F81C809C
:1037F000E0E70CB1FEF7C8FFAC694CB14FEA080630
:10380000FFF7DEFE00B1EE61641EF9D10020A86171
:10381000E86938B10849012738070860BFF34F8FBE
:10382000BFF36F8FFFF766F93846BDE8F0870000F9
:1038300038000020F006002004ED00E010B586B04E
:10384000FEF724FD114C2068B8B1002003900490CD
:1038500005AA04A903A8FFF7EFF8DDE90321022078
:103860008DE8070000230AA10B48059AFFF769FEBF
:10387000606010B106B0012010BD502080F31188A7
:10388000BFF34F8FBFF36F8FFEE70000740000207F
:10389000546D722053766300652800082DE9FF41BE
:1038A0001E46134602000A9D4FF0000016D0144C2D
:1038B0002768002F0FD0CDE900130292062917DAEE
:1038C000FFF76AFE02284FF000030FD0002269467E
:1038D0002068FFF7D5FB04B0BDE8F081502080F3ED
:1038E0001188BFF34F8FBFF36F8FFEE72A46EEE7D5
:1038F0000023324669463846FFF772FCEBE70000CA
:10390000740000204FF04070E1EE100A7047000094
:10391000F83900080000000000000000000000006E
:10392000C8000020C0000000083A000800000000A5
:1039300000000000000000008801002010000000CE
:10394000143A000800000000000000000000000021
:103950000000000000080000280000000000000037
:1039600000000000E839000800000000000000002E
:10397000000000000000000000040000180000002B
:103980000000000000000000343A000800000000C1
:103990000000000000000000000000000004000023
:1039A000100000000000000000000000243A0008A1
:1039B0000000000000000000000000000000000007
:1039C00000040000080000000000000000000000EB
:1039D00000000000000000000102030406070809BF
:1039E00000000000010203045461736B5F436D64C7
:1039F0005061727365000000456E764461746151D8
:103A00007565756500000000436D645175657565E9
:103A1000000000005461736B5F436F6E74726F6CD3
:103A2000000000005461736B5F456E76436F6C6CF1
:103A3000656374005461736B5F53746174654469AA
:103A400073706C6179000000683A00080000002083
:103A5000B8000000C4010008203B0008B8000020A6
:103A6000A8500000E001000800002C01C80064001C
:103A70000000C8410000000000000000000000003D
:103A80000000000000000000000000000000000036
:103A90000100000010000000000000000024F400FD
:103AA0000000000000000000000000000000000016
:103AB0000000000000000000000000000000000006
:103AC00000000000000000000000000000000000F6
:103AD00000000000000000000000000000000000E6
:103AE00000000000000000000000000000000000D6
:103AF00000000000000000000000000000000000C6
:103B000000000000000000000000000000000000B5
:103B10000000000000000000AAAAAAAA00000000FD
:040000050800018965
:00000001FF
