:020000040800F2
:1000000030050020A10100083B1D0008B91B0008B5
:10001000391D0008ED0900088D22000800000000CD
:10002000000000000000000000000000951E000815
:10003000A10A0008000000003D1D0008991F0008EB
:10004000BB010008BB010008BB010008BB010008A0
:10005000BB010008BB010008BB010008BB01000890
:10006000BB010008BB010008BB010008BB01000880
:10007000BB010008BB010008BB010008BB01000870
:10008000BB010008BB010008BB010008BB01000860
:10009000BB010008BB010008BB010008A30A00085F
:1000A000BB010008BB010008BB010008BB01000840
:1000B000BB010008BB010008BB010008BB01000830
:1000C000BB010008BB010008BB010008BB01000820
:1000D000BB01000881220008BB010008BB01000829
:1000E000BB010008BB010008BB010008BB01000800
:1000F000BB010008BB010008BB010008BB010008F0
:10010000BB010008BB010008BB010008BB010008DF
:10011000BB010008BB010008BB010008BB010008CF
:10012000F1090008BB010008BB010008BB01000881
:10013000BB010008BB010008BB010008BB010008AF
:10014000BB010008BB010008BB010008BB0100089F
:10015000BB010008BB010008BB010008BB0100088F
:10016000BB010008BB010008BB010008BB0100087F
:10017000BB010008BB010008BB0100080000000033
:10018000BB010008BB010008DFF810D000F02EFB17
:1001900000480047912B0008AFF300803005002095
:1001A0000648804706480047FEE7FEE7FEE7FEE711
:1001B000FEE7FEE7FEE7FEE7FEE7FEE715200008A4
:1001C000890100082DE9F05F0546002092469B4614
:1001D00088460646814640241BE02846414647465D
:1001E000224600F018F953465A46C01A914110D3DE
:1001F00011461846224600F0FFF82D1A67EB010859
:100200004F4622460120002100F0F6F817EB0009C6
:100210004E41201EA4F10104DFDC484631462A4647
:100220004346BDE8F09F00000649074A086850436E
:1002300043F23902104408604008704701490860E1
:1002400070470000400000206D4EC641D2B201E070
:1002500000F8012B491EFBD270470022F6E710B5CB
:1002600013460A4604461946FFF7F0FF204610BD24
:100270002DE9FE4F81EA030404F0004421F000411F
:1002800000944FF0000B23F0004350EA01045ED0CD
:1002900052EA03045BD0C3F30A54C1F30A552C4459
:1002A000A4F2F3340194A0FB0254C1F3130141F40E
:1002B0008011C3F3130343F4801301FB024400FBDA
:1002C000034E840A970A44EA815447EA8357A4FB01
:1002D000076802958D0A05FB07854FEA932C04FBFE
:1002E0000C542705029D4FEA065847EA1637B5EB2E
:1002F00008056EEB070C870E920E47EA811742EA5B
:100300008312A7FB0201B6EB0B0164EB00042B0D7B
:1003100043EA0C335E1844EB1C50DA465146E7FBC7
:100320000201C5F313044FEA0B3343EA14534FEAB7
:100330000432019C43EA0603A4F10C040294009CDD
:10034000CDE900B400F0BDF803B0BDE8F08F0020A7
:100350000146F9E70EB540F2334102910021CDE9A3
:1003600000110A460B4600F0ACF803B000BD00F0E7
:10037000004230F000400AD0C10D01F56071C0F3B9
:10038000160042EA0151C20840071143704700209D
:100390000146704701F0004330B421F0004150EABB
:1003A000010206D00A0DA2F56072C1F31301002A02
:1003B00002DC30BC00207047440F44EAC104C10095
:1003C000E01830BC00EBC25000F035B830B50B4639
:1003D000014600202022012409E021FA02F59D4275
:1003E00005D303FA02F5491B04FA02F52844151E49
:1003F000A2F10102F1DC30BD202A04DB203A00FA30
:1004000002F1002070479140C2F1200320FA03F36B
:10041000194390407047202A04DB203A21FA02F069
:100420000021704721FA02F3D040C2F1200291402E
:100430000843194670470029A8BF7047401C49006F
:1004400008BF20F00100704710B4B0FA80FC00FA39
:100450000CF050EA010404BF10BC704749B1CCF164
:10046000200421FA04F411FA0CF118BF01212143F0
:100470000843A3EB0C01CB1D4FEA00614FEA1020AB
:1004800042BF002010BC704700EBC350104400294D
:10049000A4BF10BC7047401C490008BF20F00100F9
:1004A00010BC704710B5141E73F1000408DA401C2C
:1004B00041F1000192185B411A4301D120F0010083
:1004C00010BD2DE9F04D92469B4611B1B1FA81F273
:1004D00002E0B0FA80F220329046FFF78DFF04462A
:1004E0000F4640EA0A0041EA0B0153465A460843C8
:1004F00013D0114653EA010019D0C8F1400250460A
:10050000FFF789FF05460E46504659464246FFF71B
:1005100073FF084305D0012004E020463946BDE8BA
:10052000F08D0020054346EAE0762C4337430A98D5
:100530006305E40AA0EB08000022FD0A44EA4754E0
:100540000A3002D500200146E9E70105101969418A
:10055000DDE9084500196941BDE8F04DA2E72DE944
:10056000FE4F804681EA0300C00F0C46009021F048
:10057000004123F00045B8EB0200A94105D24046F6
:10058000214690461C460B46024623F0004010438D
:1005900047D0270DC7F30A00C3F30A510290401A4F
:1005A000019040286BDAC3F3130040F4801B0098DD
:1005B000924620B10023D2EB030A63EB0B0B0198A8
:1005C0005946C0F140025046FFF716FF06460D4659
:1005D00050465946019A00F01BF910EB08006141A2
:1005E000002487EA115284EAE7731A4340D0009A44
:1005F00062B3019A012A4FEA075215DC001B61EB36
:1006000002014FF0004202EA0752CDE90042001C0D
:1006100041F5801132462B46FFF753FF03B0BDE88A
:10062000F08F40462146F9E7001B61EB0201001CF8
:1006300041F5801300185B412018A2F5001747EB25
:10064000030140EAD570B6196D4111E06D084FEA1B
:10065000360645EAC0754FEA0752001B61EB0201FE
:10066000001C41F5801149084FEA30000019514142
:1006700032462B4603B0BDE8F04FFFF713BF00989A
:10068000012240000023D0EB020263EBE0730098EC
:1006900021464FEAE074B8EB000061EB0401E9E7A2
:1006A00083F000435BE781F0004158E72DE9F04D0E
:1006B00081EA030404F0004B21F0004514464FF09A
:1006C000000A23F0004150EA050220D054EA01025A
:1006D0001DD0C5F30A570246C5F31303C1F3130037
:1006E000C1F30A5640F4801543F48013A7EB0608C3
:1006F000101BD64608F2FD3873EB050002D308F153
:10070000010801E092185B41B8F1000F03DA002004
:100710000146BDE8F08D00204FF480110646844666
:100720000EE0171B73EB050705D3121B63EB0503E4
:1007300006434CEA010C49084FEA300092185B412D
:1007400050EA0107EDD152EA030012D082EA040018
:1007500083EA0501084305D0101BAB4106D20122F4
:10076000002306E000224FF0004302E06FF0010298
:1007700053101AEB06004CEB085110EB0A0041EB4A
:100780000B01BDE8F04DFFF78DBEC1F30A52C1F376
:10079000130140F2FF3341F480119A4202DA002043
:1007A0000146704740F233439A42A2F2334202DCE0
:1007B0005242FFF730BEFFF71FBE000030B5041EE7
:1007C00071F1000404DB4FF00044404264EB01018E
:1007D000141E73F1000405DB1C464FF00043524227
:1007E00063EB0403994208BF904230BD064C074DAD
:1007F00006E0E06840F0010394E8070098471034F1
:10080000AC42F6D3FFF7C4FCE02D0008002E000830
:10081000202A06DBCB17203A41FA02F043EAE073C4
:1008200006E041FA02F3D040C2F1200291400843B1
:100830001946704710B50146806B026C12F0500FDC
:1008400005D0026CD20626D500F0D8F910BD016C97
:1008500041F40071016401688A6812F0405F17D1A9
:10086000027EAAB9CA6A12F4700F02D08A685205D1
:100870000ED44A6822F020024A60016C21F4807193
:100880000164016CC90403D4016C41F001010164ED
:1008900000F0B2F910BD806BC26CBDE81040084694
:1008A000104710B5806B40210164416C41F0040198
:1008B000416400F0A3F910BD10B5806B00F09DF904
:1008C00010BD0000464910B54A6822F440324A6023
:1008D0004A6843681A434A6001684A6822F4807291
:1008E0004A6001684A68036942EA03224A60016873
:1008F0004A6822F040724A6001684A6883681A4375
:100900004A6001688A6822F400628A6001688A6825
:10091000C3681A438A60816A6FF07062D1420168CD
:100920008A6822F070628A6001688A680CD0836AE3
:100930001A438A6001688A6822F040528A6001681E
:100940008A68C36A1A4301E022F040528A60016853
:100950008A6822F002028A6001688A68037E42EA9D
:1009600043028A6090F82010002901684A680FD07D
:1009700042F400624A6001684A6822F460424A60B8
:1009800001684A68174C436A04EB43331A4301E099
:1009900022F400624A600168CA6A22F47002CA62E4
:1009A0000168CA6A838B104C04EB03531A43CA6272
:1009B00001688A6822F400728A6001688A6890F887
:1009C000303042EA43228A6001688A6822F48062F9
:1009D0008A6001688A68406942EA8020886010BDA8
:1009E0000023014000E0FFFF0000F0FFFEE70000F1
:1009F000014800F027BA0000900000200168182389
:100A0000CAB2103AB2FBF3F2054B6FF30901032AA5
:100A10009B5CC36500D9091D8165084670470000CD
:100A20008C2D000810B5014600208B698A6A4FF0B2
:100A3000C07453B1B3F5005F15D072B1012A0CD068
:100A4000022A0AD0032A09D104E01AB1012A06D0E9
:100A5000022A03D1C96AC90100D5012010BDC96AA3
:100A6000A142FAD010BD002AF7D0012AF2D0022A02
:100A7000F3D0032AF3D010BD30B50468256825F4FF
:100A800080252560046863608368402B036803D079
:100A900099600068C26030BD9A600068C16030BD76
:100AA00070474FF4007000F053BB704778B50024D6
:100AB000009490F83C20012A19D0012280F83C20B3
:100AC0000A6807230568092A13D9EE680A3A02EB77
:100AD000420293409E43EE600B788A680A3B03EB28
:100AE00043039A400368DD682A43DA6010E002207D
:100AF00078BD2E6902EB420293409E432E610B7833
:100B00008A6803EB43039A4003681D692A431A610C
:100B10004A681F23072A13D205686E6B521E02EB28
:100B2000820293409E436E630B790A885B1E92B2E9
:100B300003EB83039A4003685D6B2A435A6327E003
:100B400005680D2A12D22E6BD21F02EB820293404F
:100B50009E432E630B790A88DB1F92B203EB83035B
:100B60009A4003681D6B2A431A6311E0EE6A0D3A3E
:100B700002EB820293409E43EE620B790A880D3BA2
:100B800092B203EB83039A400368DD6A2A43DA6278
:100B9000164B0568144A9D4206D10D68122D03D1EB
:100BA000556845F48005556005689D4218D10B686D
:100BB000102B01D0112B13D1536843F40003536061
:100BC000096810290CD10A490A4A0968B1FBF2F1F7
:100BD00001EB8101490000E0491E00910029FBD191
:100BE00080F83C40002078BD0023014000200140F7
:100BF0003000002040420F0070477047704770B5CA
:100C000004004FF0000503D0206C002610B107E06F
:100C1000012070BD204600F01DF8666484F83C6039
:100C2000206CC00610D4206C20F4885040F00200E4
:100C300020642046FFF746FE6664206C20F0020028
:100C400040F00100206400E0012584F83C60284663
:100C500070BD000070B586B0064614216846FFF7E7
:100C6000FCFA1E493068884236D11D4800250168CB
:100C700041F480610160006800F4806005901848CC
:100C80001438016841F0200101600068694600F0F5
:100C9000200005904FF4707000900320CDE901050D
:100CA000104800F061FA114C0F4820608005C4E93B
:100CB00001050014C4E90350400060618000A06198
:100CC0004011C4E907052046656200F08BF908B1C0
:100CD000FFF7EBFEB463A66306B070BD00220140CF
:100CE000443802400014024010640240900000208A
:100CF000F8B50E4600210446009190F83C0001280A
:100D000007D0012084F83C0020688368DB0702D00C
:100D100011E00220F8BD836843F001038360374887
:100D2000374B0068B0FBF3F000EB400000E0401EE2
:100D300000900028FBD120688368DB075CD0236C1F
:100D400040F20165AB4343F480732364406840057F
:100D500005D5206C20F4005040F480502064206CB5
:100D6000C00404D5606C20F00600606400E061649B
:100D700084F83C10A16B2448224DC863A16B234822
:100D80000864A16B2248C86421686FF022000860E3
:100D90002068416841F0806141602068816841F4C9
:100DA000807181602168134632464C31A06B00F09F
:100DB00083F968681749C006206806D088421BD1AD
:100DC000816811F0405F13D016E08842F8D0124AD3
:100DD000904203D1D1F80423D206F1D00F4A9042B9
:100DE0000AD1D1F8041301F01F011029E8D303E060
:100DF000816841F0804181600020F8BD3000002012
:100E000040420F000023014035080008B9080008DF
:100E1000A3080008002001400021014000220140F9
:100E200090F83510022903D08021416501207047D8
:100E3000052180F835100068016821F0010101608A
:100E4000002070472DE9F84304464FF00009CDF823
:100E5000009063484FF41651A56D0068B0FBF1F7A0
:100E60002E6894F85C10082000FA01F131420FD08E
:100E700021680A6852070BD50A6822F004020A604A
:100E800094F85C108840A860606D40F001006065D7
:100E900094F85C104FF0010808FA01F0304208D0D5
:100EA00021684969090604D5A860606D40F0020018
:100EB000606594F85C1004208840304208D02168B6
:100EC0000968890704D5A860606D40F0040060657A
:100ED00094F85C1010208840304218D021680968CE
:100EE000090714D5A86020680168490304D5006883
:100EF000000308D5A16C07E00168C90503D40168A7
:100F000021F008010160216C09B12046884794F85E
:100F10005C1020208840304231D021680968C90621
:100F20002DD5A86094F8350005282068016806D002
:100F3000490347D5006800031DD4616C1CE021F013
:100F4000160101602068416921F080014161206C37
:100F500008B9A06C20B12068016821F00801016087
:100F600094F85C103F208840A86084F8349084F89E
:100F70003580216D1FE0E16B09B120468847606D27
:100F800000282BD0606DC00714D0052084F83500F0
:100F90002068016821F0010101600098401C009068
:100FA000B84203D820680068C007F6D184F83490AE
:100FB00084F83580E16C002910D001B02046BDE8EE
:100FC000F04308470168C905D5D4016821F0100134
:100FD000016084F8349084F83580CCE7BDE8F8836C
:100FE000300000202DE9F041044600F099F9064652
:100FF0005CB1002584F83450022084F83500206864
:10100000016821F0010101600DE00120BDE8F081DF
:1010100000F086F9801B052805D920206065032093
:1010200084F83500F2E720680068C007F0D1226834
:10103000116820480140D4E901031843D4E903367C
:101040003343184363691843A3691843E36918439A
:10105000236A18430843616A042903D1D4E90B13B6
:1010600019430843106020684069666A20F0070150
:1010700030460E43012704280CD1A06A0643E06ADB
:1010800040B12046FFF7CEFC20B14020606584F8D7
:101090003570BAE7206846612046FFF7AFFC94F848
:1010A0005C203F2191408160656584F835700020A7
:1010B000ACE700003F8010F02DE9F0410446866D5A
:1010C00090F83400002501280DD0012084F8340068
:1010D00094F835700020012F07D084F834000225E1
:1010E0002846BDE8F0810220FBE7022784F835702E
:1010F00060652046FFF7C0FC94F85C103F208840F4
:10110000B0602068016841F016010160206C20B1D8
:101110002068016841F0080101602068016841F021
:1011200001010160DCE7000070B5044600F0F8F84A
:101130000546601C02D004480078044400F0F0F832
:10114000401BA042FAD370BD34000020704700005D
:10115000044910B50A68024202D00860FFF7F6FFA2
:1011600010BD0000143C01402DE9F84F00224FF063
:10117000010803254FF00F0E0B6808FA02F4234014
:10118000A3426ED14E68012E05D0022E03D0112E3F
:1011900001D0122E12D186684FEA420C05FA0CF7E4
:1011A000BE43CF6807FA0CF7374387604668A6430B
:1011B0000C79C4F30014944034434460C66857006B
:1011C00005FA07FC8C6826EA0C06BC403443C46070
:1011D0004C68022C01D0122C13D1D40800EB8404EB
:1011E000A346D4F8209054074FEAD46A0EFA0AF6C0
:1011F00029EA06090E6906FA0AF646EA0906CBF854
:10120000206006680C7926EA0C0604F00304BC4052
:10121000344304604C68E40065D5364C266846F4D7
:1012200080462660246822F0030604F4804400947B
:10123000314C3444A446D4F808489607370F0EFAC8
:1012400007F6B4432D4EB04201D1002624E02C4EC7
:10125000B04201D101261FE02A4EB04202D102263F
:101260001AE040E0284EB04201D1032614E0274E98
:10127000B04201D104260FE0254EB04201D105262F
:101280000AE0244EB04201D1062605E0224EB042CB
:1012900001D1072600E00826BE402643CCF80868A6
:1012A0001E4E34684F689C43FF0300D51C433460D6
:1012B0001A4C241D26684F689E43BF0300D51E4369
:1012C0002660164E083634684F689C43FF0200D5EE
:1012D0001C433460114E0C3634684F689C43BF0287
:1012E00000D51C433460521C102AFFF445AFBDE802
:1012F000F88F0000443802400030014000000240F6
:101300000004024000080240000C024000100240AD
:101310000014024000180240001C0240003C014042
:10132000014880687047000034000020024881684E
:101330000278114481607047340000200B4810B5DA
:10134000016841F400710160016841F4806101604D
:10135000016841F480710160032000F06FF8002003
:1013600000F006F800F024F8002010BD003C024018
:1013700070B50D4D04464FF47A712878B1FBF0F04A
:101380000A490968B1FBF0F000F004FB48B9102CE1
:1013900007D200222146501E00F030F800206C6079
:1013A00070BD012070BD000034000020300000201E
:1013B0000A4808B5016841F480410160006800F402
:1013C000804000900548001F016841F08051016095
:1013D000006800F08050009008BD000044380240D2
:1013E000002809DB00F01F02012191404009800024
:1013F00000F1E020C0F8001170470000F0B40E4B7F
:101400001B680C46C3F30223C3F10705042D00D962
:101410000425191D072901D2002300E0DB1E012647
:1014200006FA05F1491E214099409E40761E16405D
:101430003143F0BC00F03CBF0CED00E0064900F089
:10144000070208684FF6FF03184040EA0220034AEB
:1014500010430860704700000CED00E00000FA0542
:101460002DE9F0470E46050065D0DFF81481D8F865
:101470000000F7B200F00F00B04207D288F8007009
:10148000D8F8000000F00F00B04254D128683D4C5D
:10149000810712D5400703D5206840F4E050206052
:1014A0002878000703D5206840F460402060206859
:1014B000A96820F0F000084320602878C0072DD0EC
:1014C000304968680839012812D0022813D003284F
:1014D00011D00968890700292DDA216821F003015C
:1014E00001432160FFF71CFF814641F2883A0EE07C
:1014F00009688903EFE709688901ECE7FFF710FF46
:10150000A0EB0901514502D90320BDE8F08720680E
:10151000696800F00C00B0EB810FEFD1D8F8001033
:10152000404601F00F01B14207D90770006800F092
:101530000F00B04201D00120E7E72878400705D529
:101540002068E96820F4E05008432060287800070C
:1015500006D52068296920F4604040EAC100206077
:1015600000F038F82168084AC1F30311515CC84003
:101570000649086006480068FFF7FAFE0020C4E745
:10158000003C024008380240742D00083000002062
:10159000380000200448054900680968044AC1F37E
:1015A0008221515CC840704730000020083802405A
:1015B000842D00080448054900680968044AC1F3FD
:1015C0004231515CC840704730000020083802406A
:1015D000842D0008154810B5006810F00C0214485E
:1015E00013D01449042A0FD0082A0ED10F4C241FFF
:1015F0002268236802F03F025B0207D52068C0F32F
:101600008810A0FB010106E0084610BD2168C1F367
:101610008811A1FB00010023FEF7D4FD2168C1F36E
:101620000141491C4900B0FBF1F010BD08380240EF
:101630000024F40040787D012DE9F84F04006ED0BD
:101640002078DFF83C93C007A9F104054AD009F1DE
:1016500004000168C1F38101012908D00068C0F3CA
:10166000810002280AD1D9F80000400206D5286876
:10167000800337D560680028E1D033E06068B0F5BA
:10168000803F10D0B0F5A02F286810D020F4803013
:101690002860286820F4802028606068A8B1FFF7DF
:1016A0003FFE06460DE0286840F48030F4E740F441
:1016B00080202860F7E700BFFFF732FE801B642818
:1016C00073D828688003F7D50CE0FFF729FE06469B
:1016D00005E000BFFFF724FE801B6428F0D82868CF
:1016E0008003F7D42078DFF89C8280074FF0000A4F
:1016F0003ED5A348001D016811F00C0F08D000680A
:10170000C0F3810002280BD1D9F80000400207D4B1
:101710002868800716D5E068012800D112E02BE187
:10172000E068B8B10120C8F80000FFF7F9FD0646EF
:1017300005E000BFFFF7F4FD801B0228C0D8286831
:101740008007F7D52868216920F0F80040EAC10039
:1017500028600DE0C8F800A0FFF7E2FD064604E0AF
:10176000FFF7DEFD801B02281FD828688007F7D40A
:101770002078000722D5824E83486169703671B1A6
:1017800001210160FFF7CCFD074604E0FFF7C8FD2B
:10179000C01B022809D830688007F7D50EE0C0F8D2
:1017A00000A0FFF7BDFD074605E082E0FFF7B8FDAA
:1017B000C01B02287DD830688007F7D42078400706
:1017C00068D5DFF8BCB100270BF13C0BDBF800005B
:1017D000C0000BD4DBF8001041F08051CBF80010B2
:1017E000DBF80000012700F080500090674E306861
:1017F000C00510D4306840F480703060FFF790FD71
:10180000009005E0FFF78CFD0099401A022850D89F
:101810003068C005F6D55A4EA0686C3601280FD046
:101820000528306810D020F001003060306820F0CA
:1018300004003060A068B8B1FFF772FD00900FE0BF
:10184000306840F00100F4E740F004003060F7E752
:10185000FFF766FD0099411A41F28830814266D84F
:1018600030688007F4D50EE0FFF75AFD009007E0DE
:10187000FFF756FD0099411A41F28830814256D84F
:1018800030688007F4D42FB1DBF8001021F08051CC
:10189000CBF80010A069C8B33949091D0968C1F324
:1018A000810102294AD00228504607D0C8F86000BA
:1018B00000E03CE0FFF734FD04463BE04746C8F853
:1018C0006000FFF72DFD064605E000BFFFF728FD8D
:1018D000801B02282BD828688001F7D4D4E907019F
:1018E0000843A16A2A4A490802EB0141626A41EAB7
:1018F0008211084394F82C1040EA0161C9F80010E5
:1019000001203866FFF70CFD044606E036E000BF14
:10191000FFF706FD001B022809D828688001F7D5CB
:101920002CE000BFFFF7FCFC001B022802D90320BB
:10193000BDE8F88F28688001F4D41FE00128F7D0B3
:10194000D9F80000E26900F48001914214D1226AC2
:1019500000F03F0191420FD147F6C071626A014029
:10196000914209D1A26A00F44031914204D1E16A66
:1019700000F07060884201D00120D9E70020D7E74D
:101980000438024000004742800E47420070004089
:101990000000FFFF10B5401EB0F1807F01D3012091
:1019A00010BD4FF0E02460610F21601700F080FC53
:1019B0000020A06107202061002010BD70470000BA
:1019C00070B5026804461068D168536910F00F0FB3
:1019D00052D003F0010501F490762E435FD0C20788
:1019E00005D0CA0503D5E26B42F00102E26342076B
:1019F00005D5DA0703D0E26B42F00202E263820708
:101A000005D5DA0703D0E26B42F00402E263020775
:101A100007D501F020022A4303D0E26B42F008020E
:101A2000E263E26B002A33D0800604D5880602D533
:101A3000204600F013FB20684069E16BC0F3801082
:101A4000090700D428B3204600F0FAFA206841695B
:101A500049061AD5416921F040014161606BA0B18E
:101A60001B490165606BFFF7DBF9002810D0606B44
:101A7000016DBDE870400847830610D58B060ED572
:101A80002046BDE8704000F0E9BA2046FFF796FF17
:101A900070BD2046FFF792FF0020E06370BD030693
:101AA00006D50B0604D52046BDE8704000F0B6BB55
:101AB0004006F3D54806F1D5D168204621F0400113
:101AC000D160202184F8391000F075F870BD000055
:101AD0003120000870B5040004D094F839000025C6
:101AE00010B106E0012070BD84F83850204600F0A7
:101AF00023F8242084F839002068C16821F40051BB
:101B0000C160204600F0F6FA2068016921F4904196
:101B100001612068416921F02A0141612068C168A2
:101B200041F40051C160E563202084F8390084F855
:101B30003A00002070BD000010B586B004461421A4
:101B40006846FEF78AFB18492068884229D1174861
:101B50000021026842F010020260006800F01000EC
:101B6000059012481438026842F0010202600068D1
:101B700000F0010005904FF4C06000900220CDE914
:101B80000101032003900720049069460848FFF7ED
:101B9000EBFA002211462520FFF730FC2520FFF745
:101BA0001FFC06B010BD0000001001404438024088
:101BB0000000024070477047FEE700007FB500213B
:101BC0002548009101910291224A0391026001246B
:101BD0004FF480320461C0E90121047680F82010BE
:101BE0001E4AC0E90A210425C561C16080F8304061
:101BF0004461FFF704F808B1FEF757FFCDE9005440
:101C00000524694614480294FEF750FF08B1FEF718
:101C10004CFF0220CDE9004069460F48FEF746FF21
:101C200008B1FEF742FF06200090032001906946AC
:101C30000948FEF73BFF08B1FEF737FF0720CDE963
:101C4000000569460448FEF731FF002801D0FEF781
:101C50002CFF7FBD00220140480000200100000F42
:101C6000094808B5016841F480010160006800225C
:101C700000F48000009011463820FFF7BFFBBDE85C
:101C800008403820FFF7ACBB3038024000B587B0C1
:101C900014216846FEF7E1FA16480021026842F076
:101CA00040020260026802F040020592026842F0BF
:101CB00001020260026802F001020592026842F02D
:101CC00020020260006800F0200005904FF40070D0
:101CD00000900948CDE9010169460848FFF744FA38
:101CE000002211461720FFF789FB1720FFF778FB2A
:101CF00007B000BD3038024000001110001802404B
:101D00000C4810B50A4901604FF4E13141600021EF
:101D100081600C22C160C0E904128161C161FFF7DA
:101D2000D9FE002803D0BDE81040FEF7BEBE10BDAE
:101D300000100140F0000020FEE7704770470000EF
:101D400010B504461DA000F0A3FA2068FEF70FFBB3
:101D500041EC100B21A053EC102B00F099FA6068B5
:101D6000FEF705FB41EC100B22A053EC102B00F00A
:101D70008FFAA068FEF7FBFA41EC100B24A053EC9D
:101D8000102B00F085FAE068FEF7F1FA41EC100B39
:101D900025A053EC102B00F07BFA207C08B127A182
:101DA00000E028A129A000F073FA2DA0616900F0DD
:101DB0006FFABDE810402FA000F06ABA3D3D3D200B
:101DC000456E7669726F6E6D656E74616C204461EC
:101DD0007461203D3D3D0D0A0000000054656D70AA
:101DE000657261747572653A20252E3266C2B04301
:101DF0000D0A00004C6967687420496E74656E7343
:101E00006974793A20252E3266206C75780D0A00A7
:101E1000536D6F6B65204C6576656C3A20252E32CC
:101E2000662070706D0D0A00466C616D65204C6512
:101E300076656C3A20252E32660D0A004F70656E6D
:101E400000000000436C6F7365640000446F6F72A4
:101E5000205374617475733A2025730D0A000000D5
:101E600054696D657374616D703A20256C75206DD1
:101E7000730D0A003D3D3D3D3D3D3D3D3D3D3D3DFC
:101E80003D3D3D3D3D3D3D3D3D3D3D3D3D3D0D0AE5
:101E9000000000007047000070B53B4C05462DED7A
:101EA000028B14216069B3EE041AB0FBF1F201FB5E
:101EB000120100EE101A2821B0FBF1F2B8EE400A30
:101EC00001FB1200C0EE010AB1EE041AB3EE090ADA
:101ED00000EE810A9FED2D1A84ED010A00EE100A32
:101EE000B8EE400AC0EE010A9FED291A9FED290ABB
:101EF00000EE810A84ED020AFEF796F9642190FB58
:101F0000F1F201FB120000EE100AB2EE048AB8EE04
:101F1000C00AC0EE080AC4ED030AFEF785F93221B3
:101F200090FBF1F201FB120000EE100A0A21B8EE5C
:101F3000C00AC0EE080AC4ED040A6069B0FBF1F201
:101F400001FB120018B92078E0B10020207094ED58
:101F5000010A85ED000A94ED020A85ED010A94ED6F
:101F6000030A85ED020A94ED040A85ED030A207840
:101F70002874FFF7D5F968616069401C6061BDECA9
:101F8000028B70BD0120E1E700000020000020422C
:101F90000000484300009643FFF7C8B910B592B05F
:101FA00030216846FEF759F914210CA8FEF755F9BF
:101FB00016480024016841F080510160006800F07B
:101FC000805011901248016841F48041016000681E
:101FD000069400F4804011900220009001200390AC
:101FE000102004906846FFF727FB0F20CDE90C0472
:101FF0004FF4A050CDE90E404FF4805010900021D6
:102000000CA8FFF72DFA12B010BD000040380240B6
:10201000007000400548016841F470010160034907
:102020004FF00060803908607047000088ED00E0E4
:1020300010B5806B0021C185C184FFF7BFFC10BDC6
:102040000168CA6822F49072CA6001684A6922F085
:1020500001024A61202180F83A10704710B590F8CB
:102060003A10222901D0022010BD8168B1F5805FAD
:1020700011D00169002901681FD0496801F07F0370
:10208000816A4A1C82620B70C18D491E0904090CC9
:10209000C18518D02BE00269816A002A0268526863
:1020A00005D0D2B20A80816A491C8162ECE7C2F392
:1020B00008020A80816A891CF7E74A68816A4B1C1A
:1020C00083620A70E0E70168CA6822F02002CA60F1
:1020D0000168CA6822F48072CA6001684A6922F005
:1020E00001024A61202180F83A10FFF763FD0020C9
:1020F00010BD00002DE9F041044600680169E26866
:1021000021F44051114301612169A068E26908434B
:102110006169114308432168CA6849F20C639A4314
:102120000243CA6020684169A26921F440711143E9
:102130004161E069192764253226B0F5004F354A20
:10214000354920684FF0000806D0884201D09042FF
:1021500036D1FFF72FFA35E0884201D0904202D104
:10216000FFF728FA01E0FFF715FA61684A18A0FBAB
:10217000070148EB0803FEF725F80146B0FBF5F030
:102180000201B1FBF5F06FF01803584301EB80003A
:1021900006EBC000B0FBF5F000F0F80002EB4002E7
:1021A000B1FBF5F0584301EB800006EBC000B0FB3B
:1021B000F5F000F00700216810448860BDE8F08168
:1021C000FFF7E8F961688B0F8A00A0FB0701FDF7B4
:1021D000F9FF0146B0FBF5F06FF01802504301EB38
:1021E000800006EB0010B0FBF5F000F0F002B1FB50
:1021F000F5F002EB0012B1FBF5F06FF01803584355
:1022000001EB800006EB0010B0FBF5F000F00F00D2
:10221000D1E70000001401400010014090F839108F
:10222000212901D0022070478168B1F5805F016AE1
:102230000BD04A1C0262026809785160C18C491EA9
:102240000904090CC1840ED017E009880268C1F3A3
:102250000801516001690029016A02D0491C01622C
:10226000ECE7891CFBE70168CA6822F08002CA60BB
:102270000068C16841F04001C16000207047000063
:102280000148FFF79DBB0000F0000020FEE70000C2
:102290000FB4054B10B503A9044A029800F0EAF800
:1022A00010BC5DF814FB00007D2B000844000020EA
:1022B0000907090E002804DB00F1E02080F8001473
:1022C000704700F00F0000F1E02080F8141D704707
:1022D00002E008C8121F08C1002AFAD170477047EF
:1022E000002001E001C1121F002AFBD1704700004D
:1022F0002DE9FF5F82B00021DDE90430020DDDF839
:1023000040B0034318D044F61050A2F2FF324243CB
:102310001514119801281FD0A5EB0B00401C5FEA93
:10232000000A4FF000064E4FDFF83891B046504695
:1023300015D5CAF1000413E0119801244AA301281D
:1023400001D16FEA0B010298119AC0E90031C0E98E
:10235000024206B0BDE8F09FCBF10000DFE7044683
:102360000021404A491842EB0450CDE9001012E028
:10237000E00707D032463B4640464946FDF778FF26
:102380008046894632463B4610461946FDF770FFA7
:1023900006460F466410002CEAD1DDE90401DDE9B0
:1023A0000023BAF1000F06DAFDF762FF42464B4602
:1023B000FDF75EFF05E0FEF779F942464B46FEF772
:1023C00075F904460E460022284BFEF7F7F903D8AC
:1023D0004FF0FF30014607E00022254B20463146F2
:1023E000FEF7BDF8FEF7D1F9102409E0002C0ADB56
:1023F0000A220023FDF7E6FE039B30321A55641EC5
:1024000050EA0102F2D1641C039AC4F1110314448E
:10241000119A012A03D0012208430DD10AE0084392
:1024200004D000204FF0110B119072E7A3EB0B05C5
:102430006D1E0DE05B4504DD4FF0000205F1010566
:1024400004E003DA4FF00002A5F10105002AECD008
:1024500002981199C0E90231C0E9004579E700000E
:10246000000014400000F03F300000000000F04386
:102470000000E03F2DE9FF4F95B09A46884606469A
:102480000025EEE1252877D100242746F94A0121CD
:10249000039400E0044316F8013F203B01FA03F0E7
:1024A0001042F7D130782A2811D06FF02F033078FE
:1024B000A0F13002092A16D8039A44F0020402EB74
:1024C000820203EB42021044761C0390EFE758F8B7
:1024D000042B0392002A03DA504244F40054039080
:1024E00044F00204761C30782E2816D116F8010F1D
:1024F00044F004042A280DD06FF02F023078A0F1A8
:102500003003092B09D807EB870302EB4303C718F5
:10251000761CF3E758F8047B761C30786C280FD0D3
:1025200006DC4C2817D068280DD06A2814D104E0A6
:10253000742810D07A280FD10DE044F400140AE07A
:1025400044F4801401E044F440147278824202D1D1
:1025500004F58014761C761C307866280BD013DCCA
:10256000582877D009DC002875D04528F6D04628B1
:10257000F4D047281AD193E118E0632835D06428B5
:1025800079D0652812D18BE1702873D008DC6728D8
:10259000F1D069286FD06E280DD06F2806D1ACE03D
:1025A00073282CD0752874D0782853D052461799A8
:1025B00090476D1C54E1C4F30250022809D003284F
:1025C0000DD0D8F8001004280DD00D6008F10408D3
:1025D00046E1D8F80010EA17C1E90052F6E7D8F84A
:1025E00000100D80F2E70D70F0E718F8041B8DF86D
:1025F000001000208DF80100EB46012003E058F8A0
:1026000004BB4FF0FF3061074FF0000102D40DE032
:1026100009F101018946B9420FDA8145F8DB1BF85F
:1026200009100029F4D108E009F10101894681422D
:10263000FADB1BF809100029F6D103985346A0EBEA
:10264000090721463846179A00F080FA284400EB23
:10265000090507E044E008E10DE01BF8010B5246D4
:1026600017999047B9F10109F7D2534621463846E8
:10267000179AF2E039E00A21C4F302524FF0000B3E
:102680000091022A06D058F8040BC117032A09D07A
:102690000AE023E008F1070020F00702F2E8020157
:1026A000904605E000B2C117042A01D140B2C1171B
:1026B000002906DA0A460021404261EB02012D2280
:1026C00002E0220504D52B228DF80420012203E02C
:1026D000E20701D02022F7E7914657E00A2100E007
:1026E00010214FF0000B00910BE010214FF0000B78
:1026F00044F004040827009103E008204FF0000B89
:102700000090C4F30252022A05D058F8040B0021AD
:10271000032A08D008E008F1070020F00702F2E8D9
:102720000201904603E080B2042A00D1C0B24FF00B
:10273000000922072AD53278702A07D0DDF800C0B8
:102740008CF0100C5CEA0B0C05D00EE040228DF8EA
:102750000420012208E050EA010306D030238DF85E
:1027600004308DF8052002229146009B83F0080377
:1027700053EA0B030AD150EA010201D1620705D5E1
:1027800030228DF804204FF001097F1E3278582A3C
:1027900004D039A20C920CAA02920BE03BA2F9E7FA
:1027A0005B46009AFDF70EFD0C9B9B5C029A521E45
:1027B0000292137050EA0102F2D1029804A9081A99
:1027C00000F1200B600702D524F4803400E00127DB
:1027D0005F4502DDA7EB0B0000E0002000EB0B01E2
:1027E000009003984944401A0390E00306D45346EE
:1027F0002146179A039800F0A9F90544002706E03E
:1028000001A85246C05D179990476D1C7F1C4F452B
:10281000F6DBE0030CD553462146179A039800F0E7
:1028200095F9054404E030205246179990476D1CF5
:102830000099481E00900029F5DC08E002980299F2
:1028400052460078491C0291179990476D1CBBF1C4
:102850000001ABF1010BF1DC5BE100F065F905442F
:10286000761C307800287FF40DAE19B02846BDE8FC
:10287000F08F00000928010030313233343536370B
:1028800038396162636465660000000030313233BC
:10289000343536373839414243444546000000005C
:1028A000600700D4062708F1070020F00700F0E8D1
:1028B0000223804603F0004C5FEA0C0001D097A091
:1028C00009E0200501D596A005E0E00701D095A01C
:1028D00001E0AFF24C001390307823F000436528FC
:1028E0000CD006DC452809D046281DD047287FD1CA
:1028F0003BE0662818D067287AD136E00021112FF6
:1029000001DB112000E0781CCDE9000104A90CA82E
:10291000FFF7EEFCDDE90D010C9A4FF0000B07F11B
:102920000109109200914EE04FF000400097CDE970
:10293000011004A90CA8FFF7DBFCDDE90D020C9BDC
:102940000F994FF0000B91461093009211B9791C2A
:1029500000EB0109B7EB090003D4C0F1FF3B07F11D
:102960000109A9EB0700019042E0012F00DA0127DD
:102970000021112F01DD112000E03846CDE90001D2
:1029800004A90CA8FFF7B4FCDDE90D010C9A009135
:102990004FF0000BB946109221070FD4009A4A4518
:1029A00003DA914601E0A9F10109B9F1010F05DD52
:1029B000109AA9F10101515C3029F4D0B84202DA31
:1029C00010F1040F03DA0121CDE9011010E0002815
:1029D00003DC8344A9EB000102E0411C494500DD12
:1029E0008946A0EB0B00401C01904FF00040029084
:1029F000200705D40198484502DB4FF0FF300190D5
:102A000000208DF84B0002980DF14B07B0F1004FFC
:102A100025D002200C902B200D90029800280CDA73
:102A2000404202902D200D9007E00A210298FDF708
:102A3000CDFC3031029007F8011D0C99481E0C9016
:102A40000029F2DC02980028EFD1791E0D98087059
:102A5000307800F0200040F0450007F8020D11A882
:102A6000C01BC01D02901398007800B1012000EB3C
:102A70000901019801EBE071029801440398401AA2
:102A8000401E0390E00306D453462146179A03984C
:102A900000F05CF805441398007818B15246179975
:102AA00090476D1CE00323D553462146179A03989F
:102AB00000F04CF805441BE0BBF1000F07DB009869
:102AC000584504DD1098179910F80B0001E017998C
:102AD00030205246904701980BF1010B401E05F142
:102AE0000105019004D12E205246179990476D1C84
:102AF000B9F10001A9F10109DEDC05E017F8010BCD
:102B00005246179990476D1C0299481E0290002961
:102B1000F4DC53462146179A03989EE62D000000E8
:102B20002B000000200000002DE9F04104460025A4
:102B30001E461746880404D405E039462020B047D5
:102B40006D1C641EF9D52846BDE8F0812DE9F041E1
:102B5000044600251E469046C80301D5302700E0F4
:102B60002027880404D505E041463846B0476D1C4F
:102B7000641EF9D52846BDE8F081000003490A68C3
:102B80005206FCD5C2B24A607047000000100140F6
:102B90002DED028B8CB0FEF7D1FBFFF7FFF9FFF7AD
:102BA00075F8FFF75DF8FFF709F8FFF7A9F80422B9
:102BB00036493748FEF79CF836A0FFF769FBDFF887
:102BC000CCB09FED418B06A8FFF766F940A0FFF758
:102BD0005FFB06A8FFF7B4F84AA0FFF759FB51A026
:102BE000FFF756FB5C46BBF80000FDF7B3FB53EC68
:102BF000182BFDF73DFBFDF7CDFB244E8246283E0A
:102C0000B0616088FDF7A6FB53EC182BFDF730FB95
:102C1000FDF7C0FB8046F061A088FDF79BFB53ECFD
:102C2000182BFDF725FBFDF7B5FB05463062E08864
:102C3000FDF790FB53EC182BFDF71AFBFDF7AAFBF1
:102C40007062FDF794FB06460F462846FDF78FFBA2
:102C500004460D464046FDF78AFB804689465046AD
:102C6000FDF785FB41EC100B02A953EC102B81E81A
:102C7000F0003448CDE90089FFF70AFB32A0FFF7E6
:102C800007FB4FF4FA60FEF74FFA9CE7280000209C
:102C9000480000200D0A3D3D3D20456E7669726F6B
:102CA0006E6D656E74616C204D6F6E69746F7269C4
:102CB0006E672053797374656D2053746172746507
:102CC00064203D3D3D0D0A006666666666664A3FC5
:102CD0000D0A5B436F6E74726F6C205461736B5D91
:102CE0002050726F63657373696E6720656E7669D5
:102CF000726F6E6D656E74616C20646174612E2EEE
:102D00002E0D0A005B5549205461736B5D20557090
:102D1000646174696E6720646973706C61792E2ECA
:102D20002E0D0A005B4C6F67205461736B5D20525F
:102D300065636F7264696E6720646174612E2E2E04
:102D40000D0A0000942D00080D0A3D3D3D205761FD
:102D50006974696E6720666F72206E657874206191
:102D600063717569736974696F6E203D3D3D0D0A2D
:102D70000000000000000000000000000102030449
:102D800006070809000000000102030400061016EF
:102D9000000610160D0A41444320446174613A2034
:102DA0004368616E6E656C20313D2566562C20436C
:102DB00068616E6E656C20323D2566562C20436836
:102DC000616E6E656C20333D2566562C204368612C
:102DD0006E6E656C20343D2566560D0A00000000BD
:102DE000002E00080000002048000000D02200084B
:102DF000482E000848000020E8040000E0220008F7
:102E0000000000000000C8410000FA43000000007C
:102E100000000000000000000000000000000000B2
:102E200000000000000000000000000000000000A2
:102E30000024F40001000000100000000000000069
:082E400000000000000000008A
:040000050800018965
:00000001FF
